{
  "abi": [
    {
      "inputs": [
        {
          "internalType": "uint256",
          "name": "_minimumContribution",
          "type": "uint256"
        },
        {
          "internalType": "address",
          "name": "_manager",
          "type": "address"
        }
      ],
      "stateMutability": "nonpayable",
      "type": "constructor"
    },
    {
      "inputs": [
        {
          "internalType": "uint256",
          "name": "index",
          "type": "uint256"
        }
      ],
      "name": "approveRequest",
      "outputs": [],
      "stateMutability": "nonpayable",
      "type": "function"
    },
    {
      "inputs": [],
      "name": "approverCount",
      "outputs": [
        {
          "internalType": "uint256",
          "name": "",
          "type": "uint256"
        }
      ],
      "stateMutability": "view",
      "type": "function"
    },
    {
      "inputs": [
        {
          "internalType": "address",
          "name": "",
          "type": "address"
        }
      ],
      "name": "approvers",
      "outputs": [
        {
          "internalType": "bool",
          "name": "",
          "type": "bool"
        }
      ],
      "stateMutability": "view",
      "type": "function"
    },
    {
      "inputs": [],
      "name": "contribute",
      "outputs": [],
      "stateMutability": "payable",
      "type": "function"
    },
    {
      "inputs": [
        {
          "internalType": "string",
          "name": "description",
          "type": "string"
        },
        {
          "internalType": "uint256",
          "name": "value",
          "type": "uint256"
        },
        {
          "internalType": "address",
          "name": "recipient",
          "type": "address"
        }
      ],
      "name": "createRequest",
      "outputs": [],
      "stateMutability": "nonpayable",
      "type": "function"
    },
    {
      "inputs": [
        {
          "internalType": "uint256",
          "name": "index",
          "type": "uint256"
        }
      ],
      "name": "finalizeRequest",
      "outputs": [],
      "stateMutability": "nonpayable",
      "type": "function"
    },
    {
      "inputs": [],
      "name": "getRequestsCount",
      "outputs": [
        {
          "internalType": "uint256",
          "name": "",
          "type": "uint256"
        }
      ],
      "stateMutability": "view",
      "type": "function"
    },
    {
      "inputs": [],
      "name": "getSummary",
      "outputs": [
        {
          "internalType": "uint256",
          "name": "",
          "type": "uint256"
        },
        {
          "internalType": "uint256",
          "name": "",
          "type": "uint256"
        },
        {
          "internalType": "uint256",
          "name": "",
          "type": "uint256"
        },
        {
          "internalType": "uint256",
          "name": "",
          "type": "uint256"
        },
        {
          "internalType": "address",
          "name": "",
          "type": "address"
        }
      ],
      "stateMutability": "view",
      "type": "function"
    },
    {
      "inputs": [],
      "name": "manager",
      "outputs": [
        {
          "internalType": "address",
          "name": "",
          "type": "address"
        }
      ],
      "stateMutability": "view",
      "type": "function"
    },
    {
      "inputs": [],
      "name": "minimumContribution",
      "outputs": [
        {
          "internalType": "uint256",
          "name": "",
          "type": "uint256"
        }
      ],
      "stateMutability": "view",
      "type": "function"
    },
    {
      "inputs": [
        {
          "internalType": "uint256",
          "name": "",
          "type": "uint256"
        }
      ],
      "name": "requests",
      "outputs": [
        {
          "internalType": "string",
          "name": "description",
          "type": "string"
        },
        {
          "internalType": "uint256",
          "name": "value",
          "type": "uint256"
        },
        {
          "internalType": "address",
          "name": "recipient",
          "type": "address"
        },
        {
          "internalType": "bool",
          "name": "complete",
          "type": "bool"
        },
        {
          "internalType": "uint256",
          "name": "approvalcount",
          "type": "uint256"
        }
      ],
      "stateMutability": "view",
      "type": "function"
    }
  ],
  "devdoc": {
    "kind": "dev",
    "methods": {},
    "version": 1
  },
  "evm": {
    "assembly": "    /* \"Campaign.sol\":612:2890  contract Campaign {... */\n  mstore(0x40, 0x80)\n    /* \"Campaign.sol\":1157:1304  constructor(uint _minimumContribution, address _manager) {... */\n  callvalue\n  dup1\n  iszero\n  tag_1\n  jumpi\n  0x00\n  dup1\n  revert\ntag_1:\n  pop\n  mload(0x40)\n  sub(codesize, bytecodeSize)\n  dup1\n  bytecodeSize\n  dup4\n  codecopy\n  dup2\n  dup2\n  add\n  0x40\n  mstore\n  dup2\n  add\n  swap1\n  tag_2\n  swap2\n  swap1\n  tag_3\n  jump\t// in\ntag_2:\n    /* \"Campaign.sol\":1247:1267  _minimumContribution */\n  dup2\n    /* \"Campaign.sol\":1225:1244  minimumContribution */\n  0x02\n    /* \"Campaign.sol\":1225:1267  minimumContribution = _minimumContribution */\n  dup2\n  swap1\n  sstore\n  pop\n    /* \"Campaign.sol\":1288:1296  _manager */\n  dup1\n    /* \"Campaign.sol\":1278:1285  manager */\n  0x01\n  0x00\n    /* \"Campaign.sol\":1278:1296  manager = _manager */\n  0x0100\n  exp\n  dup2\n  sload\n  dup2\n  0xffffffffffffffffffffffffffffffffffffffff\n  mul\n  not\n  and\n  swap1\n  dup4\n  0xffffffffffffffffffffffffffffffffffffffff\n  and\n  mul\n  or\n  swap1\n  sstore\n  pop\n    /* \"Campaign.sol\":1157:1304  constructor(uint _minimumContribution, address _manager) {... */\n  pop\n  pop\n    /* \"Campaign.sol\":612:2890  contract Campaign {... */\n  jump(tag_6)\n    /* \"#utility.yul\":88:205   */\ntag_8:\n    /* \"#utility.yul\":197:198   */\n  0x00\n    /* \"#utility.yul\":194:195   */\n  dup1\n    /* \"#utility.yul\":187:199   */\n  revert\n    /* \"#utility.yul\":334:411   */\ntag_10:\n    /* \"#utility.yul\":371:378   */\n  0x00\n    /* \"#utility.yul\":400:405   */\n  dup2\n    /* \"#utility.yul\":389:405   */\n  swap1\n  pop\n    /* \"#utility.yul\":334:411   */\n  swap2\n  swap1\n  pop\n  jump\t// out\n    /* \"#utility.yul\":417:539   */\ntag_11:\n    /* \"#utility.yul\":490:514   */\n  tag_23\n    /* \"#utility.yul\":508:513   */\n  dup2\n    /* \"#utility.yul\":490:514   */\n  tag_10\n  jump\t// in\ntag_23:\n    /* \"#utility.yul\":483:488   */\n  dup2\n    /* \"#utility.yul\":480:515   */\n  eq\n    /* \"#utility.yul\":470:533   */\n  tag_24\n  jumpi\n    /* \"#utility.yul\":529:530   */\n  0x00\n    /* \"#utility.yul\":526:527   */\n  dup1\n    /* \"#utility.yul\":519:531   */\n  revert\n    /* \"#utility.yul\":470:533   */\ntag_24:\n    /* \"#utility.yul\":417:539   */\n  pop\n  jump\t// out\n    /* \"#utility.yul\":545:688   */\ntag_12:\n    /* \"#utility.yul\":602:607   */\n  0x00\n    /* \"#utility.yul\":633:639   */\n  dup2\n    /* \"#utility.yul\":627:640   */\n  mload\n    /* \"#utility.yul\":618:640   */\n  swap1\n  pop\n    /* \"#utility.yul\":649:682   */\n  tag_26\n    /* \"#utility.yul\":676:681   */\n  dup2\n    /* \"#utility.yul\":649:682   */\n  tag_11\n  jump\t// in\ntag_26:\n    /* \"#utility.yul\":545:688   */\n  swap3\n  swap2\n  pop\n  pop\n  jump\t// out\n    /* \"#utility.yul\":694:820   */\ntag_13:\n    /* \"#utility.yul\":731:738   */\n  0x00\n    /* \"#utility.yul\":771:813   */\n  0xffffffffffffffffffffffffffffffffffffffff\n    /* \"#utility.yul\":764:769   */\n  dup3\n    /* \"#utility.yul\":760:814   */\n  and\n    /* \"#utility.yul\":749:814   */\n  swap1\n  pop\n    /* \"#utility.yul\":694:820   */\n  swap2\n  swap1\n  pop\n  jump\t// out\n    /* \"#utility.yul\":826:922   */\ntag_14:\n    /* \"#utility.yul\":863:870   */\n  0x00\n    /* \"#utility.yul\":892:916   */\n  tag_29\n    /* \"#utility.yul\":910:915   */\n  dup3\n    /* \"#utility.yul\":892:916   */\n  tag_13\n  jump\t// in\ntag_29:\n    /* \"#utility.yul\":881:916   */\n  swap1\n  pop\n    /* \"#utility.yul\":826:922   */\n  swap2\n  swap1\n  pop\n  jump\t// out\n    /* \"#utility.yul\":928:1050   */\ntag_15:\n    /* \"#utility.yul\":1001:1025   */\n  tag_31\n    /* \"#utility.yul\":1019:1024   */\n  dup2\n    /* \"#utility.yul\":1001:1025   */\n  tag_14\n  jump\t// in\ntag_31:\n    /* \"#utility.yul\":994:999   */\n  dup2\n    /* \"#utility.yul\":991:1026   */\n  eq\n    /* \"#utility.yul\":981:1044   */\n  tag_32\n  jumpi\n    /* \"#utility.yul\":1040:1041   */\n  0x00\n    /* \"#utility.yul\":1037:1038   */\n  dup1\n    /* \"#utility.yul\":1030:1042   */\n  revert\n    /* \"#utility.yul\":981:1044   */\ntag_32:\n    /* \"#utility.yul\":928:1050   */\n  pop\n  jump\t// out\n    /* \"#utility.yul\":1056:1199   */\ntag_16:\n    /* \"#utility.yul\":1113:1118   */\n  0x00\n    /* \"#utility.yul\":1144:1150   */\n  dup2\n    /* \"#utility.yul\":1138:1151   */\n  mload\n    /* \"#utility.yul\":1129:1151   */\n  swap1\n  pop\n    /* \"#utility.yul\":1160:1193   */\n  tag_34\n    /* \"#utility.yul\":1187:1192   */\n  dup2\n    /* \"#utility.yul\":1160:1193   */\n  tag_15\n  jump\t// in\ntag_34:\n    /* \"#utility.yul\":1056:1199   */\n  swap3\n  swap2\n  pop\n  pop\n  jump\t// out\n    /* \"#utility.yul\":1205:1712   */\ntag_3:\n    /* \"#utility.yul\":1284:1290   */\n  0x00\n    /* \"#utility.yul\":1292:1298   */\n  dup1\n    /* \"#utility.yul\":1341:1343   */\n  0x40\n    /* \"#utility.yul\":1329:1338   */\n  dup4\n    /* \"#utility.yul\":1320:1327   */\n  dup6\n    /* \"#utility.yul\":1316:1339   */\n  sub\n    /* \"#utility.yul\":1312:1344   */\n  slt\n    /* \"#utility.yul\":1309:1428   */\n  iszero\n  tag_36\n  jumpi\n    /* \"#utility.yul\":1347:1426   */\n  tag_37\n  tag_8\n  jump\t// in\ntag_37:\n    /* \"#utility.yul\":1309:1428   */\ntag_36:\n    /* \"#utility.yul\":1467:1468   */\n  0x00\n    /* \"#utility.yul\":1492:1556   */\n  tag_38\n    /* \"#utility.yul\":1548:1555   */\n  dup6\n    /* \"#utility.yul\":1539:1545   */\n  dup3\n    /* \"#utility.yul\":1528:1537   */\n  dup7\n    /* \"#utility.yul\":1524:1546   */\n  add\n    /* \"#utility.yul\":1492:1556   */\n  tag_12\n  jump\t// in\ntag_38:\n    /* \"#utility.yul\":1482:1556   */\n  swap3\n  pop\n    /* \"#utility.yul\":1438:1566   */\n  pop\n    /* \"#utility.yul\":1605:1607   */\n  0x20\n    /* \"#utility.yul\":1631:1695   */\n  tag_39\n    /* \"#utility.yul\":1687:1694   */\n  dup6\n    /* \"#utility.yul\":1678:1684   */\n  dup3\n    /* \"#utility.yul\":1667:1676   */\n  dup7\n    /* \"#utility.yul\":1663:1685   */\n  add\n    /* \"#utility.yul\":1631:1695   */\n  tag_16\n  jump\t// in\ntag_39:\n    /* \"#utility.yul\":1621:1695   */\n  swap2\n  pop\n    /* \"#utility.yul\":1576:1705   */\n  pop\n    /* \"#utility.yul\":1205:1712   */\n  swap3\n  pop\n  swap3\n  swap1\n  pop\n  jump\t// out\n    /* \"Campaign.sol\":612:2890  contract Campaign {... */\ntag_6:\n  dataSize(sub_0)\n  dup1\n  dataOffset(sub_0)\n  0x00\n  codecopy\n  0x00\n  return\nstop\n\nsub_0: assembly {\n        /* \"Campaign.sol\":612:2890  contract Campaign {... */\n      mstore(0x40, 0x80)\n      jumpi(tag_1, lt(calldatasize, 0x04))\n      shr(0xe0, calldataload(0x00))\n      dup1\n      0x481c6a75\n      gt\n      tag_13\n      jumpi\n      dup1\n      0x481c6a75\n      eq\n      tag_7\n      jumpi\n      dup1\n      0x81d12c58\n      eq\n      tag_8\n      jumpi\n      dup1\n      0x8a9cfd55\n      eq\n      tag_9\n      jumpi\n      dup1\n      0x937e09b1\n      eq\n      tag_10\n      jumpi\n      dup1\n      0xd7bb99ba\n      eq\n      tag_11\n      jumpi\n      dup1\n      0xd7d1bbdb\n      eq\n      tag_12\n      jumpi\n      jump(tag_1)\n    tag_13:\n      dup1\n      0x03441006\n      eq\n      tag_2\n      jumpi\n      dup1\n      0x0a144391\n      eq\n      tag_3\n      jumpi\n      dup1\n      0x128e9be6\n      eq\n      tag_4\n      jumpi\n      dup1\n      0x3410452a\n      eq\n      tag_5\n      jumpi\n      dup1\n      0x4051ddac\n      eq\n      tag_6\n      jumpi\n    tag_1:\n      0x00\n      dup1\n      revert\n        /* \"Campaign.sol\":2137:2502  function finalizeRequest(uint index) public restricted {... */\n    tag_2:\n      callvalue\n      dup1\n      iszero\n      tag_14\n      jumpi\n      0x00\n      dup1\n      revert\n    tag_14:\n      pop\n      tag_15\n      0x04\n      dup1\n      calldatasize\n      sub\n      dup2\n      add\n      swap1\n      tag_16\n      swap2\n      swap1\n      tag_17\n      jump\t// in\n    tag_16:\n      tag_18\n      jump\t// in\n    tag_15:\n      stop\n        /* \"Campaign.sol\":940:979  mapping(address=>bool) public approvers */\n    tag_3:\n      callvalue\n      dup1\n      iszero\n      tag_19\n      jumpi\n      0x00\n      dup1\n      revert\n    tag_19:\n      pop\n      tag_20\n      0x04\n      dup1\n      calldatasize\n      sub\n      dup2\n      add\n      swap1\n      tag_21\n      swap2\n      swap1\n      tag_22\n      jump\t// in\n    tag_21:\n      tag_23\n      jump\t// in\n    tag_20:\n      mload(0x40)\n      tag_24\n      swap2\n      swap1\n      tag_25\n      jump\t// in\n    tag_24:\n      mload(0x40)\n      dup1\n      swap2\n      sub\n      swap1\n      return\n        /* \"Campaign.sol\":986:1011  uint public approverCount */\n    tag_4:\n      callvalue\n      dup1\n      iszero\n      tag_26\n      jumpi\n      0x00\n      dup1\n      revert\n    tag_26:\n      pop\n      tag_27\n      tag_28\n      jump\t// in\n    tag_27:\n      mload(0x40)\n      tag_29\n      swap2\n      swap1\n      tag_30\n      jump\t// in\n    tag_29:\n      mload(0x40)\n      dup1\n      swap2\n      sub\n      swap1\n      return\n        /* \"Campaign.sol\":2789:2885  function getRequestsCount() public view returns (uint) {... */\n    tag_5:\n      callvalue\n      dup1\n      iszero\n      tag_31\n      jumpi\n      0x00\n      dup1\n      revert\n    tag_31:\n      pop\n      tag_32\n      tag_33\n      jump\t// in\n    tag_32:\n      mload(0x40)\n      tag_34\n      swap2\n      swap1\n      tag_30\n      jump\t// in\n    tag_34:\n      mload(0x40)\n      dup1\n      swap2\n      sub\n      swap1\n      return\n        /* \"Campaign.sol\":2508:2777  function getSummary() public view returns (... */\n    tag_6:\n      callvalue\n      dup1\n      iszero\n      tag_35\n      jumpi\n      0x00\n      dup1\n      revert\n    tag_35:\n      pop\n      tag_36\n      tag_37\n      jump\t// in\n    tag_36:\n      mload(0x40)\n      tag_38\n      swap6\n      swap5\n      swap4\n      swap3\n      swap2\n      swap1\n      tag_39\n      jump\t// in\n    tag_38:\n      mload(0x40)\n      dup1\n      swap2\n      sub\n      swap1\n      return\n        /* \"Campaign.sol\":873:895  address public manager */\n    tag_7:\n      callvalue\n      dup1\n      iszero\n      tag_40\n      jumpi\n      0x00\n      dup1\n      revert\n    tag_40:\n      pop\n      tag_41\n      tag_42\n      jump\t// in\n    tag_41:\n      mload(0x40)\n      tag_43\n      swap2\n      swap1\n      tag_44\n      jump\t// in\n    tag_43:\n      mload(0x40)\n      dup1\n      swap2\n      sub\n      swap1\n      return\n        /* \"Campaign.sol\":841:866  Request[] public requests */\n    tag_8:\n      callvalue\n      dup1\n      iszero\n      tag_45\n      jumpi\n      0x00\n      dup1\n      revert\n    tag_45:\n      pop\n      tag_46\n      0x04\n      dup1\n      calldatasize\n      sub\n      dup2\n      add\n      swap1\n      tag_47\n      swap2\n      swap1\n      tag_17\n      jump\t// in\n    tag_47:\n      tag_48\n      jump\t// in\n    tag_46:\n      mload(0x40)\n      tag_49\n      swap6\n      swap5\n      swap4\n      swap3\n      swap2\n      swap1\n      tag_50\n      jump\t// in\n    tag_49:\n      mload(0x40)\n      dup1\n      swap2\n      sub\n      swap1\n      return\n        /* \"Campaign.sol\":1477:1844  function createRequest(string memory description, uint256 value, address recipient) public restricted {... */\n    tag_9:\n      callvalue\n      dup1\n      iszero\n      tag_51\n      jumpi\n      0x00\n      dup1\n      revert\n    tag_51:\n      pop\n      tag_52\n      0x04\n      dup1\n      calldatasize\n      sub\n      dup2\n      add\n      swap1\n      tag_53\n      swap2\n      swap1\n      tag_54\n      jump\t// in\n    tag_53:\n      tag_55\n      jump\t// in\n    tag_52:\n      stop\n        /* \"Campaign.sol\":902:933  uint public minimumContribution */\n    tag_10:\n      callvalue\n      dup1\n      iszero\n      tag_56\n      jumpi\n      0x00\n      dup1\n      revert\n    tag_56:\n      pop\n      tag_57\n      tag_58\n      jump\t// in\n    tag_57:\n      mload(0x40)\n      tag_59\n      swap2\n      swap1\n      tag_30\n      jump\t// in\n    tag_59:\n      mload(0x40)\n      dup1\n      swap2\n      sub\n      swap1\n      return\n        /* \"Campaign.sol\":1310:1469  function contribute() public payable {... */\n    tag_11:\n      tag_60\n      tag_61\n      jump\t// in\n    tag_60:\n      stop\n        /* \"Campaign.sol\":1856:2131  function approveRequest(uint index) public {... */\n    tag_12:\n      callvalue\n      dup1\n      iszero\n      tag_62\n      jumpi\n      0x00\n      dup1\n      revert\n    tag_62:\n      pop\n      tag_63\n      0x04\n      dup1\n      calldatasize\n      sub\n      dup2\n      add\n      swap1\n      tag_64\n      swap2\n      swap1\n      tag_17\n      jump\t// in\n    tag_64:\n      tag_65\n      jump\t// in\n    tag_63:\n      stop\n        /* \"Campaign.sol\":2137:2502  function finalizeRequest(uint index) public restricted {... */\n    tag_18:\n        /* \"Campaign.sol\":1075:1082  manager */\n      0x01\n      0x00\n      swap1\n      sload\n      swap1\n      0x0100\n      exp\n      swap1\n      div\n      0xffffffffffffffffffffffffffffffffffffffff\n      and\n        /* \"Campaign.sol\":1061:1082  msg.sender == manager */\n      0xffffffffffffffffffffffffffffffffffffffff\n      and\n        /* \"Campaign.sol\":1061:1071  msg.sender */\n      caller\n        /* \"Campaign.sol\":1061:1082  msg.sender == manager */\n      0xffffffffffffffffffffffffffffffffffffffff\n      and\n      eq\n        /* \"Campaign.sol\":1053:1129  require(msg.sender == manager, \"This function is restricted to the manager\") */\n      tag_67\n      jumpi\n      mload(0x40)\n      0x08c379a000000000000000000000000000000000000000000000000000000000\n      dup2\n      mstore\n      0x04\n      add\n      tag_68\n      swap1\n      tag_69\n      jump\t// in\n    tag_68:\n      mload(0x40)\n      dup1\n      swap2\n      sub\n      swap1\n      revert\n    tag_67:\n        /* \"Campaign.sol\":2203:2226  Request storage request */\n      0x00\n        /* \"Campaign.sol\":2229:2237  requests */\n      dup1\n        /* \"Campaign.sol\":2238:2243  index */\n      dup3\n        /* \"Campaign.sol\":2229:2244  requests[index] */\n      dup2\n      sload\n      dup2\n      lt\n      tag_71\n      jumpi\n      tag_72\n      tag_73\n      jump\t// in\n    tag_72:\n    tag_71:\n      swap1\n      0x00\n      mstore\n      keccak256(0x00, 0x20)\n      swap1\n      0x05\n      mul\n      add\n        /* \"Campaign.sol\":2203:2244  Request storage request = requests[index] */\n      swap1\n      pop\n        /* \"Campaign.sol\":2264:2271  request */\n      dup1\n        /* \"Campaign.sol\":2264:2280  request.complete */\n      0x02\n      add\n      0x14\n      swap1\n      sload\n      swap1\n      0x0100\n      exp\n      swap1\n      div\n      0xff\n      and\n        /* \"Campaign.sol\":2263:2280  !request.complete */\n      iszero\n        /* \"Campaign.sol\":2255:2312  require(!request.complete, \"Request is already complete\") */\n      tag_75\n      jumpi\n      mload(0x40)\n      0x08c379a000000000000000000000000000000000000000000000000000000000\n      dup2\n      mstore\n      0x04\n      add\n      tag_76\n      swap1\n      tag_77\n      jump\t// in\n    tag_76:\n      mload(0x40)\n      dup1\n      swap2\n      sub\n      swap1\n      revert\n    tag_75:\n        /* \"Campaign.sol\":2372:2373  2 */\n      0x02\n        /* \"Campaign.sol\":2356:2369  approverCount */\n      sload(0x04)\n        /* \"Campaign.sol\":2356:2373  approverCount / 2 */\n      tag_78\n      swap2\n      swap1\n      tag_79\n      jump\t// in\n    tag_78:\n        /* \"Campaign.sol\":2331:2338  request */\n      dup2\n        /* \"Campaign.sol\":2331:2352  request.approvalcount */\n      0x03\n      add\n      sload\n        /* \"Campaign.sol\":2331:2374  request.approvalcount > (approverCount / 2) */\n      gt\n        /* \"Campaign.sol\":2323:2399  require(request.approvalcount > (approverCount / 2), \"Not enough approvals\") */\n      tag_80\n      jumpi\n      mload(0x40)\n      0x08c379a000000000000000000000000000000000000000000000000000000000\n      dup2\n      mstore\n      0x04\n      add\n      tag_81\n      swap1\n      tag_82\n      jump\t// in\n    tag_81:\n      mload(0x40)\n      dup1\n      swap2\n      sub\n      swap1\n      revert\n    tag_80:\n        /* \"Campaign.sol\":2418:2425  request */\n      dup1\n        /* \"Campaign.sol\":2418:2435  request.recipient */\n      0x02\n      add\n      0x00\n      swap1\n      sload\n      swap1\n      0x0100\n      exp\n      swap1\n      div\n      0xffffffffffffffffffffffffffffffffffffffff\n      and\n        /* \"Campaign.sol\":2410:2445  payable(request.recipient).transfer */\n      0xffffffffffffffffffffffffffffffffffffffff\n      and\n        /* \"Campaign.sol\":2410:2460  payable(request.recipient).transfer(request.value) */\n      0x08fc\n        /* \"Campaign.sol\":2446:2453  request */\n      dup3\n        /* \"Campaign.sol\":2446:2459  request.value */\n      0x01\n      add\n      sload\n        /* \"Campaign.sol\":2410:2460  payable(request.recipient).transfer(request.value) */\n      swap1\n      dup2\n      iszero\n      mul\n      swap1\n      mload(0x40)\n      0x00\n      mload(0x40)\n      dup1\n      dup4\n      sub\n      dup2\n      dup6\n      dup9\n      dup9\n      call\n      swap4\n      pop\n      pop\n      pop\n      pop\n      iszero\n      dup1\n      iszero\n      tag_84\n      jumpi\n      returndatasize\n      0x00\n      dup1\n      returndatacopy\n      revert(0x00, returndatasize)\n    tag_84:\n      pop\n        /* \"Campaign.sol\":2490:2494  true */\n      0x01\n        /* \"Campaign.sol\":2471:2478  request */\n      dup2\n        /* \"Campaign.sol\":2471:2487  request.complete */\n      0x02\n      add\n      0x14\n        /* \"Campaign.sol\":2471:2494  request.complete = true */\n      0x0100\n      exp\n      dup2\n      sload\n      dup2\n      0xff\n      mul\n      not\n      and\n      swap1\n      dup4\n      iszero\n      iszero\n      mul\n      or\n      swap1\n      sstore\n      pop\n        /* \"Campaign.sol\":2192:2502  {... */\n      pop\n        /* \"Campaign.sol\":2137:2502  function finalizeRequest(uint index) public restricted {... */\n      pop\n      jump\t// out\n        /* \"Campaign.sol\":940:979  mapping(address=>bool) public approvers */\n    tag_23:\n      mstore(0x20, 0x03)\n      dup1\n      0x00\n      mstore\n      keccak256(0x00, 0x40)\n      0x00\n      swap2\n      pop\n      sload\n      swap1\n      0x0100\n      exp\n      swap1\n      div\n      0xff\n      and\n      dup2\n      jump\t// out\n        /* \"Campaign.sol\":986:1011  uint public approverCount */\n    tag_28:\n      sload(0x04)\n      dup2\n      jump\t// out\n        /* \"Campaign.sol\":2789:2885  function getRequestsCount() public view returns (uint) {... */\n    tag_33:\n        /* \"Campaign.sol\":2838:2842  uint */\n      0x00\n        /* \"Campaign.sol\":2862:2870  requests */\n      dup1\n        /* \"Campaign.sol\":2862:2877  requests.length */\n      dup1\n      sload\n      swap1\n      pop\n        /* \"Campaign.sol\":2855:2877  return requests.length */\n      swap1\n      pop\n        /* \"Campaign.sol\":2789:2885  function getRequestsCount() public view returns (uint) {... */\n      swap1\n      jump\t// out\n        /* \"Campaign.sol\":2508:2777  function getSummary() public view returns (... */\n    tag_37:\n        /* \"Campaign.sol\":2559:2563  uint */\n      0x00\n        /* \"Campaign.sol\":2565:2569  uint */\n      dup1\n        /* \"Campaign.sol\":2571:2575  uint */\n      0x00\n        /* \"Campaign.sol\":2577:2581  uint */\n      dup1\n        /* \"Campaign.sol\":2583:2590  address */\n      0x00\n        /* \"Campaign.sol\":2631:2650  minimumContribution */\n      sload(0x02)\n        /* \"Campaign.sol\":2663:2684  address(this).balance */\n      selfbalance\n        /* \"Campaign.sol\":2697:2705  requests */\n      0x00\n        /* \"Campaign.sol\":2697:2712  requests.length */\n      dup1\n      sload\n      swap1\n      pop\n        /* \"Campaign.sol\":2725:2738  approverCount */\n      sload(0x04)\n        /* \"Campaign.sol\":2751:2758  manager */\n      0x01\n      0x00\n      swap1\n      sload\n      swap1\n      0x0100\n      exp\n      swap1\n      div\n      0xffffffffffffffffffffffffffffffffffffffff\n      and\n        /* \"Campaign.sol\":2611:2769  return (... */\n      swap5\n      pop\n      swap5\n      pop\n      swap5\n      pop\n      swap5\n      pop\n      swap5\n      pop\n        /* \"Campaign.sol\":2508:2777  function getSummary() public view returns (... */\n      swap1\n      swap2\n      swap3\n      swap4\n      swap5\n      jump\t// out\n        /* \"Campaign.sol\":873:895  address public manager */\n    tag_42:\n      0x01\n      0x00\n      swap1\n      sload\n      swap1\n      0x0100\n      exp\n      swap1\n      div\n      0xffffffffffffffffffffffffffffffffffffffff\n      and\n      dup2\n      jump\t// out\n        /* \"Campaign.sol\":841:866  Request[] public requests */\n    tag_48:\n      0x00\n      dup2\n      dup2\n      sload\n      dup2\n      lt\n      tag_87\n      jumpi\n      0x00\n      dup1\n      revert\n    tag_87:\n      swap1\n      0x00\n      mstore\n      keccak256(0x00, 0x20)\n      swap1\n      0x05\n      mul\n      add\n      0x00\n      swap2\n      pop\n      swap1\n      pop\n      dup1\n      0x00\n      add\n      dup1\n      sload\n      tag_89\n      swap1\n      tag_90\n      jump\t// in\n    tag_89:\n      dup1\n      0x1f\n      add\n      0x20\n      dup1\n      swap2\n      div\n      mul\n      0x20\n      add\n      mload(0x40)\n      swap1\n      dup2\n      add\n      0x40\n      mstore\n      dup1\n      swap3\n      swap2\n      swap1\n      dup2\n      dup2\n      mstore\n      0x20\n      add\n      dup3\n      dup1\n      sload\n      tag_91\n      swap1\n      tag_90\n      jump\t// in\n    tag_91:\n      dup1\n      iszero\n      tag_92\n      jumpi\n      dup1\n      0x1f\n      lt\n      tag_93\n      jumpi\n      0x0100\n      dup1\n      dup4\n      sload\n      div\n      mul\n      dup4\n      mstore\n      swap2\n      0x20\n      add\n      swap2\n      jump(tag_92)\n    tag_93:\n      dup3\n      add\n      swap2\n      swap1\n      0x00\n      mstore\n      keccak256(0x00, 0x20)\n      swap1\n    tag_94:\n      dup2\n      sload\n      dup2\n      mstore\n      swap1\n      0x01\n      add\n      swap1\n      0x20\n      add\n      dup1\n      dup4\n      gt\n      tag_94\n      jumpi\n      dup3\n      swap1\n      sub\n      0x1f\n      and\n      dup3\n      add\n      swap2\n    tag_92:\n      pop\n      pop\n      pop\n      pop\n      pop\n      swap1\n      dup1\n      0x01\n      add\n      sload\n      swap1\n      dup1\n      0x02\n      add\n      0x00\n      swap1\n      sload\n      swap1\n      0x0100\n      exp\n      swap1\n      div\n      0xffffffffffffffffffffffffffffffffffffffff\n      and\n      swap1\n      dup1\n      0x02\n      add\n      0x14\n      swap1\n      sload\n      swap1\n      0x0100\n      exp\n      swap1\n      div\n      0xff\n      and\n      swap1\n      dup1\n      0x03\n      add\n      sload\n      swap1\n      pop\n      dup6\n      jump\t// out\n        /* \"Campaign.sol\":1477:1844  function createRequest(string memory description, uint256 value, address recipient) public restricted {... */\n    tag_55:\n        /* \"Campaign.sol\":1075:1082  manager */\n      0x01\n      0x00\n      swap1\n      sload\n      swap1\n      0x0100\n      exp\n      swap1\n      div\n      0xffffffffffffffffffffffffffffffffffffffff\n      and\n        /* \"Campaign.sol\":1061:1082  msg.sender == manager */\n      0xffffffffffffffffffffffffffffffffffffffff\n      and\n        /* \"Campaign.sol\":1061:1071  msg.sender */\n      caller\n        /* \"Campaign.sol\":1061:1082  msg.sender == manager */\n      0xffffffffffffffffffffffffffffffffffffffff\n      and\n      eq\n        /* \"Campaign.sol\":1053:1129  require(msg.sender == manager, \"This function is restricted to the manager\") */\n      tag_96\n      jumpi\n      mload(0x40)\n      0x08c379a000000000000000000000000000000000000000000000000000000000\n      dup2\n      mstore\n      0x04\n      add\n      tag_97\n      swap1\n      tag_69\n      jump\t// in\n    tag_97:\n      mload(0x40)\n      dup1\n      swap2\n      sub\n      swap1\n      revert\n    tag_96:\n        /* \"Campaign.sol\":1590:1616  Request storage newRequest */\n      0x00\n        /* \"Campaign.sol\":1619:1627  requests */\n      dup1\n        /* \"Campaign.sol\":1619:1634  requests.push() */\n      0x01\n      dup2\n      0x01\n      dup2\n      sload\n      add\n      dup1\n      dup3\n      sstore\n      dup1\n      swap2\n      pop\n      pop\n      sub\n      swap1\n      0x00\n      mstore\n      keccak256(0x00, 0x20)\n      swap1\n      0x05\n      mul\n      add\n        /* \"Campaign.sol\":1590:1634  Request storage newRequest = requests.push() */\n      swap1\n      pop\n        /* \"Campaign.sol\":1670:1681  description */\n      dup4\n        /* \"Campaign.sol\":1645:1655  newRequest */\n      dup2\n        /* \"Campaign.sol\":1645:1667  newRequest.description */\n      0x00\n      add\n        /* \"Campaign.sol\":1645:1681  newRequest.description = description */\n      swap1\n      dup2\n      tag_100\n      swap2\n      swap1\n      tag_101\n      jump\t// in\n    tag_100:\n      pop\n        /* \"Campaign.sol\":1711:1716  value */\n      dup3\n        /* \"Campaign.sol\":1692:1702  newRequest */\n      dup2\n        /* \"Campaign.sol\":1692:1708  newRequest.value */\n      0x01\n      add\n        /* \"Campaign.sol\":1692:1716  newRequest.value = value */\n      dup2\n      swap1\n      sstore\n      pop\n        /* \"Campaign.sol\":1750:1759  recipient */\n      dup2\n        /* \"Campaign.sol\":1727:1737  newRequest */\n      dup2\n        /* \"Campaign.sol\":1727:1747  newRequest.recipient */\n      0x02\n      add\n      0x00\n        /* \"Campaign.sol\":1727:1759  newRequest.recipient = recipient */\n      0x0100\n      exp\n      dup2\n      sload\n      dup2\n      0xffffffffffffffffffffffffffffffffffffffff\n      mul\n      not\n      and\n      swap1\n      dup4\n      0xffffffffffffffffffffffffffffffffffffffff\n      and\n      mul\n      or\n      swap1\n      sstore\n      pop\n        /* \"Campaign.sol\":1792:1797  false */\n      0x00\n        /* \"Campaign.sol\":1770:1780  newRequest */\n      dup2\n        /* \"Campaign.sol\":1770:1789  newRequest.complete */\n      0x02\n      add\n      0x14\n        /* \"Campaign.sol\":1770:1797  newRequest.complete = false */\n      0x0100\n      exp\n      dup2\n      sload\n      dup2\n      0xff\n      mul\n      not\n      and\n      swap1\n      dup4\n      iszero\n      iszero\n      mul\n      or\n      swap1\n      sstore\n      pop\n        /* \"Campaign.sol\":1835:1836  0 */\n      0x00\n        /* \"Campaign.sol\":1808:1818  newRequest */\n      dup2\n        /* \"Campaign.sol\":1808:1832  newRequest.approvalcount */\n      0x03\n      add\n        /* \"Campaign.sol\":1808:1836  newRequest.approvalcount = 0 */\n      dup2\n      swap1\n      sstore\n      pop\n        /* \"Campaign.sol\":1579:1844  {... */\n      pop\n        /* \"Campaign.sol\":1477:1844  function createRequest(string memory description, uint256 value, address recipient) public restricted {... */\n      pop\n      pop\n      pop\n      jump\t// out\n        /* \"Campaign.sol\":902:933  uint public minimumContribution */\n    tag_58:\n      sload(0x02)\n      dup2\n      jump\t// out\n        /* \"Campaign.sol\":1310:1469  function contribute() public payable {... */\n    tag_61:\n        /* \"Campaign.sol\":1376:1395  minimumContribution */\n      sload(0x02)\n        /* \"Campaign.sol\":1366:1375  msg.value */\n      callvalue\n        /* \"Campaign.sol\":1366:1395  msg.value>minimumContribution */\n      gt\n        /* \"Campaign.sol\":1358:1396  require(msg.value>minimumContribution) */\n      tag_103\n      jumpi\n      0x00\n      dup1\n      revert\n    tag_103:\n        /* \"Campaign.sol\":1431:1435  true */\n      0x01\n        /* \"Campaign.sol\":1407:1416  approvers */\n      0x03\n        /* \"Campaign.sol\":1407:1428  approvers[msg.sender] */\n      0x00\n        /* \"Campaign.sol\":1417:1427  msg.sender */\n      caller\n        /* \"Campaign.sol\":1407:1428  approvers[msg.sender] */\n      0xffffffffffffffffffffffffffffffffffffffff\n      and\n      0xffffffffffffffffffffffffffffffffffffffff\n      and\n      dup2\n      mstore\n      0x20\n      add\n      swap1\n      dup2\n      mstore\n      0x20\n      add\n      0x00\n      keccak256\n      0x00\n        /* \"Campaign.sol\":1407:1435  approvers[msg.sender] = true */\n      0x0100\n      exp\n      dup2\n      sload\n      dup2\n      0xff\n      mul\n      not\n      and\n      swap1\n      dup4\n      iszero\n      iszero\n      mul\n      or\n      swap1\n      sstore\n      pop\n        /* \"Campaign.sol\":1446:1459  approverCount */\n      0x04\n      0x00\n        /* \"Campaign.sol\":1446:1461  approverCount++ */\n      dup2\n      sload\n      dup1\n      swap3\n      swap2\n      swap1\n      tag_104\n      swap1\n      tag_105\n      jump\t// in\n    tag_104:\n      swap2\n      swap1\n      pop\n      sstore\n      pop\n        /* \"Campaign.sol\":1310:1469  function contribute() public payable {... */\n      jump\t// out\n        /* \"Campaign.sol\":1856:2131  function approveRequest(uint index) public {... */\n    tag_65:\n        /* \"Campaign.sol\":1910:1933  Request storage request */\n      0x00\n        /* \"Campaign.sol\":1936:1944  requests */\n      dup1\n        /* \"Campaign.sol\":1945:1950  index */\n      dup3\n        /* \"Campaign.sol\":1936:1951  requests[index] */\n      dup2\n      sload\n      dup2\n      lt\n      tag_107\n      jumpi\n      tag_108\n      tag_73\n      jump\t// in\n    tag_108:\n    tag_107:\n      swap1\n      0x00\n      mstore\n      keccak256(0x00, 0x20)\n      swap1\n      0x05\n      mul\n      add\n        /* \"Campaign.sol\":1910:1951  Request storage request = requests[index] */\n      swap1\n      pop\n        /* \"Campaign.sol\":1970:1979  approvers */\n      0x03\n        /* \"Campaign.sol\":1970:1991  approvers[msg.sender] */\n      0x00\n        /* \"Campaign.sol\":1980:1990  msg.sender */\n      caller\n        /* \"Campaign.sol\":1970:1991  approvers[msg.sender] */\n      0xffffffffffffffffffffffffffffffffffffffff\n      and\n      0xffffffffffffffffffffffffffffffffffffffff\n      and\n      dup2\n      mstore\n      0x20\n      add\n      swap1\n      dup2\n      mstore\n      0x20\n      add\n      0x00\n      keccak256\n      0x00\n      swap1\n      sload\n      swap1\n      0x0100\n      exp\n      swap1\n      div\n      0xff\n      and\n        /* \"Campaign.sol\":1962:1992  require(approvers[msg.sender]) */\n      tag_110\n      jumpi\n      0x00\n      dup1\n      revert\n    tag_110:\n        /* \"Campaign.sol\":2012:2019  request */\n      dup1\n        /* \"Campaign.sol\":2012:2029  request.approvals */\n      0x04\n      add\n        /* \"Campaign.sol\":2012:2041  request.approvals[msg.sender] */\n      0x00\n        /* \"Campaign.sol\":2030:2040  msg.sender */\n      caller\n        /* \"Campaign.sol\":2012:2041  request.approvals[msg.sender] */\n      0xffffffffffffffffffffffffffffffffffffffff\n      and\n      0xffffffffffffffffffffffffffffffffffffffff\n      and\n      dup2\n      mstore\n      0x20\n      add\n      swap1\n      dup2\n      mstore\n      0x20\n      add\n      0x00\n      keccak256\n      0x00\n      swap1\n      sload\n      swap1\n      0x0100\n      exp\n      swap1\n      div\n      0xff\n      and\n        /* \"Campaign.sol\":2011:2041  !request.approvals[msg.sender] */\n      iszero\n        /* \"Campaign.sol\":2003:2042  require(!request.approvals[msg.sender]) */\n      tag_111\n      jumpi\n      0x00\n      dup1\n      revert\n    tag_111:\n        /* \"Campaign.sol\":2085:2089  true */\n      0x01\n        /* \"Campaign.sol\":2053:2060  request */\n      dup2\n        /* \"Campaign.sol\":2053:2070  request.approvals */\n      0x04\n      add\n        /* \"Campaign.sol\":2053:2082  request.approvals[msg.sender] */\n      0x00\n        /* \"Campaign.sol\":2071:2081  msg.sender */\n      caller\n        /* \"Campaign.sol\":2053:2082  request.approvals[msg.sender] */\n      0xffffffffffffffffffffffffffffffffffffffff\n      and\n      0xffffffffffffffffffffffffffffffffffffffff\n      and\n      dup2\n      mstore\n      0x20\n      add\n      swap1\n      dup2\n      mstore\n      0x20\n      add\n      0x00\n      keccak256\n      0x00\n        /* \"Campaign.sol\":2053:2089  request.approvals[msg.sender] = true */\n      0x0100\n      exp\n      dup2\n      sload\n      dup2\n      0xff\n      mul\n      not\n      and\n      swap1\n      dup4\n      iszero\n      iszero\n      mul\n      or\n      swap1\n      sstore\n      pop\n        /* \"Campaign.sol\":2100:2107  request */\n      dup1\n        /* \"Campaign.sol\":2100:2121  request.approvalcount */\n      0x03\n      add\n      0x00\n        /* \"Campaign.sol\":2100:2123  request.approvalcount++ */\n      dup2\n      sload\n      dup1\n      swap3\n      swap2\n      swap1\n      tag_112\n      swap1\n      tag_105\n      jump\t// in\n    tag_112:\n      swap2\n      swap1\n      pop\n      sstore\n      pop\n        /* \"Campaign.sol\":1899:2131  {... */\n      pop\n        /* \"Campaign.sol\":1856:2131  function approveRequest(uint index) public {... */\n      pop\n      jump\t// out\n        /* \"#utility.yul\":7:82   */\n    tag_113:\n        /* \"#utility.yul\":40:46   */\n      0x00\n        /* \"#utility.yul\":73:75   */\n      0x40\n        /* \"#utility.yul\":67:76   */\n      mload\n        /* \"#utility.yul\":57:76   */\n      swap1\n      pop\n        /* \"#utility.yul\":7:82   */\n      swap1\n      jump\t// out\n        /* \"#utility.yul\":88:205   */\n    tag_114:\n        /* \"#utility.yul\":197:198   */\n      0x00\n        /* \"#utility.yul\":194:195   */\n      dup1\n        /* \"#utility.yul\":187:199   */\n      revert\n        /* \"#utility.yul\":211:328   */\n    tag_115:\n        /* \"#utility.yul\":320:321   */\n      0x00\n        /* \"#utility.yul\":317:318   */\n      dup1\n        /* \"#utility.yul\":310:322   */\n      revert\n        /* \"#utility.yul\":334:411   */\n    tag_116:\n        /* \"#utility.yul\":371:378   */\n      0x00\n        /* \"#utility.yul\":400:405   */\n      dup2\n        /* \"#utility.yul\":389:405   */\n      swap1\n      pop\n        /* \"#utility.yul\":334:411   */\n      swap2\n      swap1\n      pop\n      jump\t// out\n        /* \"#utility.yul\":417:539   */\n    tag_117:\n        /* \"#utility.yul\":490:514   */\n      tag_171\n        /* \"#utility.yul\":508:513   */\n      dup2\n        /* \"#utility.yul\":490:514   */\n      tag_116\n      jump\t// in\n    tag_171:\n        /* \"#utility.yul\":483:488   */\n      dup2\n        /* \"#utility.yul\":480:515   */\n      eq\n        /* \"#utility.yul\":470:533   */\n      tag_172\n      jumpi\n        /* \"#utility.yul\":529:530   */\n      0x00\n        /* \"#utility.yul\":526:527   */\n      dup1\n        /* \"#utility.yul\":519:531   */\n      revert\n        /* \"#utility.yul\":470:533   */\n    tag_172:\n        /* \"#utility.yul\":417:539   */\n      pop\n      jump\t// out\n        /* \"#utility.yul\":545:684   */\n    tag_118:\n        /* \"#utility.yul\":591:596   */\n      0x00\n        /* \"#utility.yul\":629:635   */\n      dup2\n        /* \"#utility.yul\":616:636   */\n      calldataload\n        /* \"#utility.yul\":607:636   */\n      swap1\n      pop\n        /* \"#utility.yul\":645:678   */\n      tag_174\n        /* \"#utility.yul\":672:677   */\n      dup2\n        /* \"#utility.yul\":645:678   */\n      tag_117\n      jump\t// in\n    tag_174:\n        /* \"#utility.yul\":545:684   */\n      swap3\n      swap2\n      pop\n      pop\n      jump\t// out\n        /* \"#utility.yul\":690:1019   */\n    tag_17:\n        /* \"#utility.yul\":749:755   */\n      0x00\n        /* \"#utility.yul\":798:800   */\n      0x20\n        /* \"#utility.yul\":786:795   */\n      dup3\n        /* \"#utility.yul\":777:784   */\n      dup5\n        /* \"#utility.yul\":773:796   */\n      sub\n        /* \"#utility.yul\":769:801   */\n      slt\n        /* \"#utility.yul\":766:885   */\n      iszero\n      tag_176\n      jumpi\n        /* \"#utility.yul\":804:883   */\n      tag_177\n      tag_114\n      jump\t// in\n    tag_177:\n        /* \"#utility.yul\":766:885   */\n    tag_176:\n        /* \"#utility.yul\":924:925   */\n      0x00\n        /* \"#utility.yul\":949:1002   */\n      tag_178\n        /* \"#utility.yul\":994:1001   */\n      dup5\n        /* \"#utility.yul\":985:991   */\n      dup3\n        /* \"#utility.yul\":974:983   */\n      dup6\n        /* \"#utility.yul\":970:992   */\n      add\n        /* \"#utility.yul\":949:1002   */\n      tag_118\n      jump\t// in\n    tag_178:\n        /* \"#utility.yul\":939:1002   */\n      swap2\n      pop\n        /* \"#utility.yul\":895:1012   */\n      pop\n        /* \"#utility.yul\":690:1019   */\n      swap3\n      swap2\n      pop\n      pop\n      jump\t// out\n        /* \"#utility.yul\":1025:1151   */\n    tag_119:\n        /* \"#utility.yul\":1062:1069   */\n      0x00\n        /* \"#utility.yul\":1102:1144   */\n      0xffffffffffffffffffffffffffffffffffffffff\n        /* \"#utility.yul\":1095:1100   */\n      dup3\n        /* \"#utility.yul\":1091:1145   */\n      and\n        /* \"#utility.yul\":1080:1145   */\n      swap1\n      pop\n        /* \"#utility.yul\":1025:1151   */\n      swap2\n      swap1\n      pop\n      jump\t// out\n        /* \"#utility.yul\":1157:1253   */\n    tag_120:\n        /* \"#utility.yul\":1194:1201   */\n      0x00\n        /* \"#utility.yul\":1223:1247   */\n      tag_181\n        /* \"#utility.yul\":1241:1246   */\n      dup3\n        /* \"#utility.yul\":1223:1247   */\n      tag_119\n      jump\t// in\n    tag_181:\n        /* \"#utility.yul\":1212:1247   */\n      swap1\n      pop\n        /* \"#utility.yul\":1157:1253   */\n      swap2\n      swap1\n      pop\n      jump\t// out\n        /* \"#utility.yul\":1259:1381   */\n    tag_121:\n        /* \"#utility.yul\":1332:1356   */\n      tag_183\n        /* \"#utility.yul\":1350:1355   */\n      dup2\n        /* \"#utility.yul\":1332:1356   */\n      tag_120\n      jump\t// in\n    tag_183:\n        /* \"#utility.yul\":1325:1330   */\n      dup2\n        /* \"#utility.yul\":1322:1357   */\n      eq\n        /* \"#utility.yul\":1312:1375   */\n      tag_184\n      jumpi\n        /* \"#utility.yul\":1371:1372   */\n      0x00\n        /* \"#utility.yul\":1368:1369   */\n      dup1\n        /* \"#utility.yul\":1361:1373   */\n      revert\n        /* \"#utility.yul\":1312:1375   */\n    tag_184:\n        /* \"#utility.yul\":1259:1381   */\n      pop\n      jump\t// out\n        /* \"#utility.yul\":1387:1526   */\n    tag_122:\n        /* \"#utility.yul\":1433:1438   */\n      0x00\n        /* \"#utility.yul\":1471:1477   */\n      dup2\n        /* \"#utility.yul\":1458:1478   */\n      calldataload\n        /* \"#utility.yul\":1449:1478   */\n      swap1\n      pop\n        /* \"#utility.yul\":1487:1520   */\n      tag_186\n        /* \"#utility.yul\":1514:1519   */\n      dup2\n        /* \"#utility.yul\":1487:1520   */\n      tag_121\n      jump\t// in\n    tag_186:\n        /* \"#utility.yul\":1387:1526   */\n      swap3\n      swap2\n      pop\n      pop\n      jump\t// out\n        /* \"#utility.yul\":1532:1861   */\n    tag_22:\n        /* \"#utility.yul\":1591:1597   */\n      0x00\n        /* \"#utility.yul\":1640:1642   */\n      0x20\n        /* \"#utility.yul\":1628:1637   */\n      dup3\n        /* \"#utility.yul\":1619:1626   */\n      dup5\n        /* \"#utility.yul\":1615:1638   */\n      sub\n        /* \"#utility.yul\":1611:1643   */\n      slt\n        /* \"#utility.yul\":1608:1727   */\n      iszero\n      tag_188\n      jumpi\n        /* \"#utility.yul\":1646:1725   */\n      tag_189\n      tag_114\n      jump\t// in\n    tag_189:\n        /* \"#utility.yul\":1608:1727   */\n    tag_188:\n        /* \"#utility.yul\":1766:1767   */\n      0x00\n        /* \"#utility.yul\":1791:1844   */\n      tag_190\n        /* \"#utility.yul\":1836:1843   */\n      dup5\n        /* \"#utility.yul\":1827:1833   */\n      dup3\n        /* \"#utility.yul\":1816:1825   */\n      dup6\n        /* \"#utility.yul\":1812:1834   */\n      add\n        /* \"#utility.yul\":1791:1844   */\n      tag_122\n      jump\t// in\n    tag_190:\n        /* \"#utility.yul\":1781:1844   */\n      swap2\n      pop\n        /* \"#utility.yul\":1737:1854   */\n      pop\n        /* \"#utility.yul\":1532:1861   */\n      swap3\n      swap2\n      pop\n      pop\n      jump\t// out\n        /* \"#utility.yul\":1867:1957   */\n    tag_123:\n        /* \"#utility.yul\":1901:1908   */\n      0x00\n        /* \"#utility.yul\":1944:1949   */\n      dup2\n        /* \"#utility.yul\":1937:1950   */\n      iszero\n        /* \"#utility.yul\":1930:1951   */\n      iszero\n        /* \"#utility.yul\":1919:1951   */\n      swap1\n      pop\n        /* \"#utility.yul\":1867:1957   */\n      swap2\n      swap1\n      pop\n      jump\t// out\n        /* \"#utility.yul\":1963:2072   */\n    tag_124:\n        /* \"#utility.yul\":2044:2065   */\n      tag_193\n        /* \"#utility.yul\":2059:2064   */\n      dup2\n        /* \"#utility.yul\":2044:2065   */\n      tag_123\n      jump\t// in\n    tag_193:\n        /* \"#utility.yul\":2039:2042   */\n      dup3\n        /* \"#utility.yul\":2032:2066   */\n      mstore\n        /* \"#utility.yul\":1963:2072   */\n      pop\n      pop\n      jump\t// out\n        /* \"#utility.yul\":2078:2288   */\n    tag_25:\n        /* \"#utility.yul\":2165:2169   */\n      0x00\n        /* \"#utility.yul\":2203:2205   */\n      0x20\n        /* \"#utility.yul\":2192:2201   */\n      dup3\n        /* \"#utility.yul\":2188:2206   */\n      add\n        /* \"#utility.yul\":2180:2206   */\n      swap1\n      pop\n        /* \"#utility.yul\":2216:2281   */\n      tag_195\n        /* \"#utility.yul\":2278:2279   */\n      0x00\n        /* \"#utility.yul\":2267:2276   */\n      dup4\n        /* \"#utility.yul\":2263:2280   */\n      add\n        /* \"#utility.yul\":2254:2260   */\n      dup5\n        /* \"#utility.yul\":2216:2281   */\n      tag_124\n      jump\t// in\n    tag_195:\n        /* \"#utility.yul\":2078:2288   */\n      swap3\n      swap2\n      pop\n      pop\n      jump\t// out\n        /* \"#utility.yul\":2294:2412   */\n    tag_125:\n        /* \"#utility.yul\":2381:2405   */\n      tag_197\n        /* \"#utility.yul\":2399:2404   */\n      dup2\n        /* \"#utility.yul\":2381:2405   */\n      tag_116\n      jump\t// in\n    tag_197:\n        /* \"#utility.yul\":2376:2379   */\n      dup3\n        /* \"#utility.yul\":2369:2406   */\n      mstore\n        /* \"#utility.yul\":2294:2412   */\n      pop\n      pop\n      jump\t// out\n        /* \"#utility.yul\":2418:2640   */\n    tag_30:\n        /* \"#utility.yul\":2511:2515   */\n      0x00\n        /* \"#utility.yul\":2549:2551   */\n      0x20\n        /* \"#utility.yul\":2538:2547   */\n      dup3\n        /* \"#utility.yul\":2534:2552   */\n      add\n        /* \"#utility.yul\":2526:2552   */\n      swap1\n      pop\n        /* \"#utility.yul\":2562:2633   */\n      tag_199\n        /* \"#utility.yul\":2630:2631   */\n      0x00\n        /* \"#utility.yul\":2619:2628   */\n      dup4\n        /* \"#utility.yul\":2615:2632   */\n      add\n        /* \"#utility.yul\":2606:2612   */\n      dup5\n        /* \"#utility.yul\":2562:2633   */\n      tag_125\n      jump\t// in\n    tag_199:\n        /* \"#utility.yul\":2418:2640   */\n      swap3\n      swap2\n      pop\n      pop\n      jump\t// out\n        /* \"#utility.yul\":2646:2764   */\n    tag_126:\n        /* \"#utility.yul\":2733:2757   */\n      tag_201\n        /* \"#utility.yul\":2751:2756   */\n      dup2\n        /* \"#utility.yul\":2733:2757   */\n      tag_120\n      jump\t// in\n    tag_201:\n        /* \"#utility.yul\":2728:2731   */\n      dup3\n        /* \"#utility.yul\":2721:2758   */\n      mstore\n        /* \"#utility.yul\":2646:2764   */\n      pop\n      pop\n      jump\t// out\n        /* \"#utility.yul\":2770:3434   */\n    tag_39:\n        /* \"#utility.yul\":2975:2979   */\n      0x00\n        /* \"#utility.yul\":3013:3016   */\n      0xa0\n        /* \"#utility.yul\":3002:3011   */\n      dup3\n        /* \"#utility.yul\":2998:3017   */\n      add\n        /* \"#utility.yul\":2990:3017   */\n      swap1\n      pop\n        /* \"#utility.yul\":3027:3098   */\n      tag_203\n        /* \"#utility.yul\":3095:3096   */\n      0x00\n        /* \"#utility.yul\":3084:3093   */\n      dup4\n        /* \"#utility.yul\":3080:3097   */\n      add\n        /* \"#utility.yul\":3071:3077   */\n      dup9\n        /* \"#utility.yul\":3027:3098   */\n      tag_125\n      jump\t// in\n    tag_203:\n        /* \"#utility.yul\":3108:3180   */\n      tag_204\n        /* \"#utility.yul\":3176:3178   */\n      0x20\n        /* \"#utility.yul\":3165:3174   */\n      dup4\n        /* \"#utility.yul\":3161:3179   */\n      add\n        /* \"#utility.yul\":3152:3158   */\n      dup8\n        /* \"#utility.yul\":3108:3180   */\n      tag_125\n      jump\t// in\n    tag_204:\n        /* \"#utility.yul\":3190:3262   */\n      tag_205\n        /* \"#utility.yul\":3258:3260   */\n      0x40\n        /* \"#utility.yul\":3247:3256   */\n      dup4\n        /* \"#utility.yul\":3243:3261   */\n      add\n        /* \"#utility.yul\":3234:3240   */\n      dup7\n        /* \"#utility.yul\":3190:3262   */\n      tag_125\n      jump\t// in\n    tag_205:\n        /* \"#utility.yul\":3272:3344   */\n      tag_206\n        /* \"#utility.yul\":3340:3342   */\n      0x60\n        /* \"#utility.yul\":3329:3338   */\n      dup4\n        /* \"#utility.yul\":3325:3343   */\n      add\n        /* \"#utility.yul\":3316:3322   */\n      dup6\n        /* \"#utility.yul\":3272:3344   */\n      tag_125\n      jump\t// in\n    tag_206:\n        /* \"#utility.yul\":3354:3427   */\n      tag_207\n        /* \"#utility.yul\":3422:3425   */\n      0x80\n        /* \"#utility.yul\":3411:3420   */\n      dup4\n        /* \"#utility.yul\":3407:3426   */\n      add\n        /* \"#utility.yul\":3398:3404   */\n      dup5\n        /* \"#utility.yul\":3354:3427   */\n      tag_126\n      jump\t// in\n    tag_207:\n        /* \"#utility.yul\":2770:3434   */\n      swap7\n      swap6\n      pop\n      pop\n      pop\n      pop\n      pop\n      pop\n      jump\t// out\n        /* \"#utility.yul\":3440:3662   */\n    tag_44:\n        /* \"#utility.yul\":3533:3537   */\n      0x00\n        /* \"#utility.yul\":3571:3573   */\n      0x20\n        /* \"#utility.yul\":3560:3569   */\n      dup3\n        /* \"#utility.yul\":3556:3574   */\n      add\n        /* \"#utility.yul\":3548:3574   */\n      swap1\n      pop\n        /* \"#utility.yul\":3584:3655   */\n      tag_209\n        /* \"#utility.yul\":3652:3653   */\n      0x00\n        /* \"#utility.yul\":3641:3650   */\n      dup4\n        /* \"#utility.yul\":3637:3654   */\n      add\n        /* \"#utility.yul\":3628:3634   */\n      dup5\n        /* \"#utility.yul\":3584:3655   */\n      tag_126\n      jump\t// in\n    tag_209:\n        /* \"#utility.yul\":3440:3662   */\n      swap3\n      swap2\n      pop\n      pop\n      jump\t// out\n        /* \"#utility.yul\":3668:3767   */\n    tag_127:\n        /* \"#utility.yul\":3720:3726   */\n      0x00\n        /* \"#utility.yul\":3754:3759   */\n      dup2\n        /* \"#utility.yul\":3748:3760   */\n      mload\n        /* \"#utility.yul\":3738:3760   */\n      swap1\n      pop\n        /* \"#utility.yul\":3668:3767   */\n      swap2\n      swap1\n      pop\n      jump\t// out\n        /* \"#utility.yul\":3773:3942   */\n    tag_128:\n        /* \"#utility.yul\":3857:3868   */\n      0x00\n        /* \"#utility.yul\":3891:3897   */\n      dup3\n        /* \"#utility.yul\":3886:3889   */\n      dup3\n        /* \"#utility.yul\":3879:3898   */\n      mstore\n        /* \"#utility.yul\":3931:3935   */\n      0x20\n        /* \"#utility.yul\":3926:3929   */\n      dup3\n        /* \"#utility.yul\":3922:3936   */\n      add\n        /* \"#utility.yul\":3907:3936   */\n      swap1\n      pop\n        /* \"#utility.yul\":3773:3942   */\n      swap3\n      swap2\n      pop\n      pop\n      jump\t// out\n        /* \"#utility.yul\":3948:4194   */\n    tag_129:\n        /* \"#utility.yul\":4029:4030   */\n      0x00\n        /* \"#utility.yul\":4039:4152   */\n    tag_213:\n        /* \"#utility.yul\":4053:4059   */\n      dup4\n        /* \"#utility.yul\":4050:4051   */\n      dup2\n        /* \"#utility.yul\":4047:4060   */\n      lt\n        /* \"#utility.yul\":4039:4152   */\n      iszero\n      tag_215\n      jumpi\n        /* \"#utility.yul\":4138:4139   */\n      dup1\n        /* \"#utility.yul\":4133:4136   */\n      dup3\n        /* \"#utility.yul\":4129:4140   */\n      add\n        /* \"#utility.yul\":4123:4141   */\n      mload\n        /* \"#utility.yul\":4119:4120   */\n      dup2\n        /* \"#utility.yul\":4114:4117   */\n      dup5\n        /* \"#utility.yul\":4110:4121   */\n      add\n        /* \"#utility.yul\":4103:4142   */\n      mstore\n        /* \"#utility.yul\":4075:4077   */\n      0x20\n        /* \"#utility.yul\":4072:4073   */\n      dup2\n        /* \"#utility.yul\":4068:4078   */\n      add\n        /* \"#utility.yul\":4063:4078   */\n      swap1\n      pop\n        /* \"#utility.yul\":4039:4152   */\n      jump(tag_213)\n    tag_215:\n        /* \"#utility.yul\":4186:4187   */\n      0x00\n        /* \"#utility.yul\":4177:4183   */\n      dup5\n        /* \"#utility.yul\":4172:4175   */\n      dup5\n        /* \"#utility.yul\":4168:4184   */\n      add\n        /* \"#utility.yul\":4161:4188   */\n      mstore\n        /* \"#utility.yul\":4010:4194   */\n      pop\n        /* \"#utility.yul\":3948:4194   */\n      pop\n      pop\n      pop\n      jump\t// out\n        /* \"#utility.yul\":4200:4302   */\n    tag_130:\n        /* \"#utility.yul\":4241:4247   */\n      0x00\n        /* \"#utility.yul\":4292:4294   */\n      0x1f\n        /* \"#utility.yul\":4288:4295   */\n      not\n        /* \"#utility.yul\":4283:4285   */\n      0x1f\n        /* \"#utility.yul\":4276:4281   */\n      dup4\n        /* \"#utility.yul\":4272:4286   */\n      add\n        /* \"#utility.yul\":4268:4296   */\n      and\n        /* \"#utility.yul\":4258:4296   */\n      swap1\n      pop\n        /* \"#utility.yul\":4200:4302   */\n      swap2\n      swap1\n      pop\n      jump\t// out\n        /* \"#utility.yul\":4308:4685   */\n    tag_131:\n        /* \"#utility.yul\":4396:4399   */\n      0x00\n        /* \"#utility.yul\":4424:4463   */\n      tag_218\n        /* \"#utility.yul\":4457:4462   */\n      dup3\n        /* \"#utility.yul\":4424:4463   */\n      tag_127\n      jump\t// in\n    tag_218:\n        /* \"#utility.yul\":4479:4550   */\n      tag_219\n        /* \"#utility.yul\":4543:4549   */\n      dup2\n        /* \"#utility.yul\":4538:4541   */\n      dup6\n        /* \"#utility.yul\":4479:4550   */\n      tag_128\n      jump\t// in\n    tag_219:\n        /* \"#utility.yul\":4472:4550   */\n      swap4\n      pop\n        /* \"#utility.yul\":4559:4624   */\n      tag_220\n        /* \"#utility.yul\":4617:4623   */\n      dup2\n        /* \"#utility.yul\":4612:4615   */\n      dup6\n        /* \"#utility.yul\":4605:4609   */\n      0x20\n        /* \"#utility.yul\":4598:4603   */\n      dup7\n        /* \"#utility.yul\":4594:4610   */\n      add\n        /* \"#utility.yul\":4559:4624   */\n      tag_129\n      jump\t// in\n    tag_220:\n        /* \"#utility.yul\":4649:4678   */\n      tag_221\n        /* \"#utility.yul\":4671:4677   */\n      dup2\n        /* \"#utility.yul\":4649:4678   */\n      tag_130\n      jump\t// in\n    tag_221:\n        /* \"#utility.yul\":4644:4647   */\n      dup5\n        /* \"#utility.yul\":4640:4679   */\n      add\n        /* \"#utility.yul\":4633:4679   */\n      swap2\n      pop\n        /* \"#utility.yul\":4400:4685   */\n      pop\n        /* \"#utility.yul\":4308:4685   */\n      swap3\n      swap2\n      pop\n      pop\n      jump\t// out\n        /* \"#utility.yul\":4691:5434   */\n    tag_50:\n        /* \"#utility.yul\":4910:4914   */\n      0x00\n        /* \"#utility.yul\":4948:4951   */\n      0xa0\n        /* \"#utility.yul\":4937:4946   */\n      dup3\n        /* \"#utility.yul\":4933:4952   */\n      add\n        /* \"#utility.yul\":4925:4952   */\n      swap1\n      pop\n        /* \"#utility.yul\":4998:5007   */\n      dup2\n        /* \"#utility.yul\":4992:4996   */\n      dup2\n        /* \"#utility.yul\":4988:5008   */\n      sub\n        /* \"#utility.yul\":4984:4985   */\n      0x00\n        /* \"#utility.yul\":4973:4982   */\n      dup4\n        /* \"#utility.yul\":4969:4986   */\n      add\n        /* \"#utility.yul\":4962:5009   */\n      mstore\n        /* \"#utility.yul\":5026:5104   */\n      tag_223\n        /* \"#utility.yul\":5099:5103   */\n      dup2\n        /* \"#utility.yul\":5090:5096   */\n      dup9\n        /* \"#utility.yul\":5026:5104   */\n      tag_131\n      jump\t// in\n    tag_223:\n        /* \"#utility.yul\":5018:5104   */\n      swap1\n      pop\n        /* \"#utility.yul\":5114:5186   */\n      tag_224\n        /* \"#utility.yul\":5182:5184   */\n      0x20\n        /* \"#utility.yul\":5171:5180   */\n      dup4\n        /* \"#utility.yul\":5167:5185   */\n      add\n        /* \"#utility.yul\":5158:5164   */\n      dup8\n        /* \"#utility.yul\":5114:5186   */\n      tag_125\n      jump\t// in\n    tag_224:\n        /* \"#utility.yul\":5196:5268   */\n      tag_225\n        /* \"#utility.yul\":5264:5266   */\n      0x40\n        /* \"#utility.yul\":5253:5262   */\n      dup4\n        /* \"#utility.yul\":5249:5267   */\n      add\n        /* \"#utility.yul\":5240:5246   */\n      dup7\n        /* \"#utility.yul\":5196:5268   */\n      tag_126\n      jump\t// in\n    tag_225:\n        /* \"#utility.yul\":5278:5344   */\n      tag_226\n        /* \"#utility.yul\":5340:5342   */\n      0x60\n        /* \"#utility.yul\":5329:5338   */\n      dup4\n        /* \"#utility.yul\":5325:5343   */\n      add\n        /* \"#utility.yul\":5316:5322   */\n      dup6\n        /* \"#utility.yul\":5278:5344   */\n      tag_124\n      jump\t// in\n    tag_226:\n        /* \"#utility.yul\":5354:5427   */\n      tag_227\n        /* \"#utility.yul\":5422:5425   */\n      0x80\n        /* \"#utility.yul\":5411:5420   */\n      dup4\n        /* \"#utility.yul\":5407:5426   */\n      add\n        /* \"#utility.yul\":5398:5404   */\n      dup5\n        /* \"#utility.yul\":5354:5427   */\n      tag_125\n      jump\t// in\n    tag_227:\n        /* \"#utility.yul\":4691:5434   */\n      swap7\n      swap6\n      pop\n      pop\n      pop\n      pop\n      pop\n      pop\n      jump\t// out\n        /* \"#utility.yul\":5440:5557   */\n    tag_132:\n        /* \"#utility.yul\":5549:5550   */\n      0x00\n        /* \"#utility.yul\":5546:5547   */\n      dup1\n        /* \"#utility.yul\":5539:5551   */\n      revert\n        /* \"#utility.yul\":5563:5680   */\n    tag_133:\n        /* \"#utility.yul\":5672:5673   */\n      0x00\n        /* \"#utility.yul\":5669:5670   */\n      dup1\n        /* \"#utility.yul\":5662:5674   */\n      revert\n        /* \"#utility.yul\":5686:5866   */\n    tag_134:\n        /* \"#utility.yul\":5734:5811   */\n      0x4e487b7100000000000000000000000000000000000000000000000000000000\n        /* \"#utility.yul\":5731:5732   */\n      0x00\n        /* \"#utility.yul\":5724:5812   */\n      mstore\n        /* \"#utility.yul\":5831:5835   */\n      0x41\n        /* \"#utility.yul\":5828:5829   */\n      0x04\n        /* \"#utility.yul\":5821:5836   */\n      mstore\n        /* \"#utility.yul\":5855:5859   */\n      0x24\n        /* \"#utility.yul\":5852:5853   */\n      0x00\n        /* \"#utility.yul\":5845:5860   */\n      revert\n        /* \"#utility.yul\":5872:6153   */\n    tag_135:\n        /* \"#utility.yul\":5955:5982   */\n      tag_232\n        /* \"#utility.yul\":5977:5981   */\n      dup3\n        /* \"#utility.yul\":5955:5982   */\n      tag_130\n      jump\t// in\n    tag_232:\n        /* \"#utility.yul\":5947:5953   */\n      dup2\n        /* \"#utility.yul\":5943:5983   */\n      add\n        /* \"#utility.yul\":6085:6091   */\n      dup2\n        /* \"#utility.yul\":6073:6083   */\n      dup2\n        /* \"#utility.yul\":6070:6092   */\n      lt\n        /* \"#utility.yul\":6049:6067   */\n      0xffffffffffffffff\n        /* \"#utility.yul\":6037:6047   */\n      dup3\n        /* \"#utility.yul\":6034:6068   */\n      gt\n        /* \"#utility.yul\":6031:6093   */\n      or\n        /* \"#utility.yul\":6028:6116   */\n      iszero\n      tag_233\n      jumpi\n        /* \"#utility.yul\":6096:6114   */\n      tag_234\n      tag_134\n      jump\t// in\n    tag_234:\n        /* \"#utility.yul\":6028:6116   */\n    tag_233:\n        /* \"#utility.yul\":6136:6146   */\n      dup1\n        /* \"#utility.yul\":6132:6134   */\n      0x40\n        /* \"#utility.yul\":6125:6147   */\n      mstore\n        /* \"#utility.yul\":5915:6153   */\n      pop\n        /* \"#utility.yul\":5872:6153   */\n      pop\n      pop\n      jump\t// out\n        /* \"#utility.yul\":6159:6288   */\n    tag_136:\n        /* \"#utility.yul\":6193:6199   */\n      0x00\n        /* \"#utility.yul\":6220:6240   */\n      tag_236\n      tag_113\n      jump\t// in\n    tag_236:\n        /* \"#utility.yul\":6210:6240   */\n      swap1\n      pop\n        /* \"#utility.yul\":6249:6282   */\n      tag_237\n        /* \"#utility.yul\":6277:6281   */\n      dup3\n        /* \"#utility.yul\":6269:6275   */\n      dup3\n        /* \"#utility.yul\":6249:6282   */\n      tag_135\n      jump\t// in\n    tag_237:\n        /* \"#utility.yul\":6159:6288   */\n      swap2\n      swap1\n      pop\n      jump\t// out\n        /* \"#utility.yul\":6294:6602   */\n    tag_137:\n        /* \"#utility.yul\":6356:6360   */\n      0x00\n        /* \"#utility.yul\":6446:6464   */\n      0xffffffffffffffff\n        /* \"#utility.yul\":6438:6444   */\n      dup3\n        /* \"#utility.yul\":6435:6465   */\n      gt\n        /* \"#utility.yul\":6432:6488   */\n      iszero\n      tag_239\n      jumpi\n        /* \"#utility.yul\":6468:6486   */\n      tag_240\n      tag_134\n      jump\t// in\n    tag_240:\n        /* \"#utility.yul\":6432:6488   */\n    tag_239:\n        /* \"#utility.yul\":6506:6535   */\n      tag_241\n        /* \"#utility.yul\":6528:6534   */\n      dup3\n        /* \"#utility.yul\":6506:6535   */\n      tag_130\n      jump\t// in\n    tag_241:\n        /* \"#utility.yul\":6498:6535   */\n      swap1\n      pop\n        /* \"#utility.yul\":6590:6594   */\n      0x20\n        /* \"#utility.yul\":6584:6588   */\n      dup2\n        /* \"#utility.yul\":6580:6595   */\n      add\n        /* \"#utility.yul\":6572:6595   */\n      swap1\n      pop\n        /* \"#utility.yul\":6294:6602   */\n      swap2\n      swap1\n      pop\n      jump\t// out\n        /* \"#utility.yul\":6608:6754   */\n    tag_138:\n        /* \"#utility.yul\":6705:6711   */\n      dup3\n        /* \"#utility.yul\":6700:6703   */\n      dup2\n        /* \"#utility.yul\":6695:6698   */\n      dup4\n        /* \"#utility.yul\":6682:6712   */\n      calldatacopy\n        /* \"#utility.yul\":6746:6747   */\n      0x00\n        /* \"#utility.yul\":6737:6743   */\n      dup4\n        /* \"#utility.yul\":6732:6735   */\n      dup4\n        /* \"#utility.yul\":6728:6744   */\n      add\n        /* \"#utility.yul\":6721:6748   */\n      mstore\n        /* \"#utility.yul\":6608:6754   */\n      pop\n      pop\n      pop\n      jump\t// out\n        /* \"#utility.yul\":6760:7185   */\n    tag_139:\n        /* \"#utility.yul\":6838:6843   */\n      0x00\n        /* \"#utility.yul\":6863:6929   */\n      tag_244\n        /* \"#utility.yul\":6879:6928   */\n      tag_245\n        /* \"#utility.yul\":6921:6927   */\n      dup5\n        /* \"#utility.yul\":6879:6928   */\n      tag_137\n      jump\t// in\n    tag_245:\n        /* \"#utility.yul\":6863:6929   */\n      tag_136\n      jump\t// in\n    tag_244:\n        /* \"#utility.yul\":6854:6929   */\n      swap1\n      pop\n        /* \"#utility.yul\":6952:6958   */\n      dup3\n        /* \"#utility.yul\":6945:6950   */\n      dup2\n        /* \"#utility.yul\":6938:6959   */\n      mstore\n        /* \"#utility.yul\":6990:6994   */\n      0x20\n        /* \"#utility.yul\":6983:6988   */\n      dup2\n        /* \"#utility.yul\":6979:6995   */\n      add\n        /* \"#utility.yul\":7028:7031   */\n      dup5\n        /* \"#utility.yul\":7019:7025   */\n      dup5\n        /* \"#utility.yul\":7014:7017   */\n      dup5\n        /* \"#utility.yul\":7010:7026   */\n      add\n        /* \"#utility.yul\":7007:7032   */\n      gt\n        /* \"#utility.yul\":7004:7116   */\n      iszero\n      tag_246\n      jumpi\n        /* \"#utility.yul\":7035:7114   */\n      tag_247\n      tag_133\n      jump\t// in\n    tag_247:\n        /* \"#utility.yul\":7004:7116   */\n    tag_246:\n        /* \"#utility.yul\":7125:7179   */\n      tag_248\n        /* \"#utility.yul\":7172:7178   */\n      dup5\n        /* \"#utility.yul\":7167:7170   */\n      dup3\n        /* \"#utility.yul\":7162:7165   */\n      dup6\n        /* \"#utility.yul\":7125:7179   */\n      tag_138\n      jump\t// in\n    tag_248:\n        /* \"#utility.yul\":6844:7185   */\n      pop\n        /* \"#utility.yul\":6760:7185   */\n      swap4\n      swap3\n      pop\n      pop\n      pop\n      jump\t// out\n        /* \"#utility.yul\":7205:7545   */\n    tag_140:\n        /* \"#utility.yul\":7261:7266   */\n      0x00\n        /* \"#utility.yul\":7310:7313   */\n      dup3\n        /* \"#utility.yul\":7303:7307   */\n      0x1f\n        /* \"#utility.yul\":7295:7301   */\n      dup4\n        /* \"#utility.yul\":7291:7308   */\n      add\n        /* \"#utility.yul\":7287:7314   */\n      slt\n        /* \"#utility.yul\":7277:7399   */\n      tag_250\n      jumpi\n        /* \"#utility.yul\":7318:7397   */\n      tag_251\n      tag_132\n      jump\t// in\n    tag_251:\n        /* \"#utility.yul\":7277:7399   */\n    tag_250:\n        /* \"#utility.yul\":7435:7441   */\n      dup2\n        /* \"#utility.yul\":7422:7442   */\n      calldataload\n        /* \"#utility.yul\":7460:7539   */\n      tag_252\n        /* \"#utility.yul\":7535:7538   */\n      dup5\n        /* \"#utility.yul\":7527:7533   */\n      dup3\n        /* \"#utility.yul\":7520:7524   */\n      0x20\n        /* \"#utility.yul\":7512:7518   */\n      dup7\n        /* \"#utility.yul\":7508:7525   */\n      add\n        /* \"#utility.yul\":7460:7539   */\n      tag_139\n      jump\t// in\n    tag_252:\n        /* \"#utility.yul\":7451:7539   */\n      swap2\n      pop\n        /* \"#utility.yul\":7267:7545   */\n      pop\n        /* \"#utility.yul\":7205:7545   */\n      swap3\n      swap2\n      pop\n      pop\n      jump\t// out\n        /* \"#utility.yul\":7551:8350   */\n    tag_54:\n        /* \"#utility.yul\":7638:7644   */\n      0x00\n        /* \"#utility.yul\":7646:7652   */\n      dup1\n        /* \"#utility.yul\":7654:7660   */\n      0x00\n        /* \"#utility.yul\":7703:7705   */\n      0x60\n        /* \"#utility.yul\":7691:7700   */\n      dup5\n        /* \"#utility.yul\":7682:7689   */\n      dup7\n        /* \"#utility.yul\":7678:7701   */\n      sub\n        /* \"#utility.yul\":7674:7706   */\n      slt\n        /* \"#utility.yul\":7671:7790   */\n      iszero\n      tag_254\n      jumpi\n        /* \"#utility.yul\":7709:7788   */\n      tag_255\n      tag_114\n      jump\t// in\n    tag_255:\n        /* \"#utility.yul\":7671:7790   */\n    tag_254:\n        /* \"#utility.yul\":7857:7858   */\n      0x00\n        /* \"#utility.yul\":7846:7855   */\n      dup5\n        /* \"#utility.yul\":7842:7859   */\n      add\n        /* \"#utility.yul\":7829:7860   */\n      calldataload\n        /* \"#utility.yul\":7887:7905   */\n      0xffffffffffffffff\n        /* \"#utility.yul\":7879:7885   */\n      dup2\n        /* \"#utility.yul\":7876:7906   */\n      gt\n        /* \"#utility.yul\":7873:7990   */\n      iszero\n      tag_256\n      jumpi\n        /* \"#utility.yul\":7909:7988   */\n      tag_257\n      tag_115\n      jump\t// in\n    tag_257:\n        /* \"#utility.yul\":7873:7990   */\n    tag_256:\n        /* \"#utility.yul\":8014:8077   */\n      tag_258\n        /* \"#utility.yul\":8069:8076   */\n      dup7\n        /* \"#utility.yul\":8060:8066   */\n      dup3\n        /* \"#utility.yul\":8049:8058   */\n      dup8\n        /* \"#utility.yul\":8045:8067   */\n      add\n        /* \"#utility.yul\":8014:8077   */\n      tag_140\n      jump\t// in\n    tag_258:\n        /* \"#utility.yul\":8004:8077   */\n      swap4\n      pop\n        /* \"#utility.yul\":7800:8087   */\n      pop\n        /* \"#utility.yul\":8126:8128   */\n      0x20\n        /* \"#utility.yul\":8152:8205   */\n      tag_259\n        /* \"#utility.yul\":8197:8204   */\n      dup7\n        /* \"#utility.yul\":8188:8194   */\n      dup3\n        /* \"#utility.yul\":8177:8186   */\n      dup8\n        /* \"#utility.yul\":8173:8195   */\n      add\n        /* \"#utility.yul\":8152:8205   */\n      tag_118\n      jump\t// in\n    tag_259:\n        /* \"#utility.yul\":8142:8205   */\n      swap3\n      pop\n        /* \"#utility.yul\":8097:8215   */\n      pop\n        /* \"#utility.yul\":8254:8256   */\n      0x40\n        /* \"#utility.yul\":8280:8333   */\n      tag_260\n        /* \"#utility.yul\":8325:8332   */\n      dup7\n        /* \"#utility.yul\":8316:8322   */\n      dup3\n        /* \"#utility.yul\":8305:8314   */\n      dup8\n        /* \"#utility.yul\":8301:8323   */\n      add\n        /* \"#utility.yul\":8280:8333   */\n      tag_122\n      jump\t// in\n    tag_260:\n        /* \"#utility.yul\":8270:8333   */\n      swap2\n      pop\n        /* \"#utility.yul\":8225:8343   */\n      pop\n        /* \"#utility.yul\":7551:8350   */\n      swap3\n      pop\n      swap3\n      pop\n      swap3\n      jump\t// out\n        /* \"#utility.yul\":8356:8585   */\n    tag_141:\n        /* \"#utility.yul\":8496:8530   */\n      0x546869732066756e6374696f6e206973207265737472696374656420746f2074\n        /* \"#utility.yul\":8492:8493   */\n      0x00\n        /* \"#utility.yul\":8484:8490   */\n      dup3\n        /* \"#utility.yul\":8480:8494   */\n      add\n        /* \"#utility.yul\":8473:8531   */\n      mstore\n        /* \"#utility.yul\":8565:8577   */\n      0x6865206d616e6167657200000000000000000000000000000000000000000000\n        /* \"#utility.yul\":8560:8562   */\n      0x20\n        /* \"#utility.yul\":8552:8558   */\n      dup3\n        /* \"#utility.yul\":8548:8563   */\n      add\n        /* \"#utility.yul\":8541:8578   */\n      mstore\n        /* \"#utility.yul\":8356:8585   */\n      pop\n      jump\t// out\n        /* \"#utility.yul\":8591:8957   */\n    tag_142:\n        /* \"#utility.yul\":8733:8736   */\n      0x00\n        /* \"#utility.yul\":8754:8821   */\n      tag_263\n        /* \"#utility.yul\":8818:8820   */\n      0x2a\n        /* \"#utility.yul\":8813:8816   */\n      dup4\n        /* \"#utility.yul\":8754:8821   */\n      tag_128\n      jump\t// in\n    tag_263:\n        /* \"#utility.yul\":8747:8821   */\n      swap2\n      pop\n        /* \"#utility.yul\":8830:8923   */\n      tag_264\n        /* \"#utility.yul\":8919:8922   */\n      dup3\n        /* \"#utility.yul\":8830:8923   */\n      tag_141\n      jump\t// in\n    tag_264:\n        /* \"#utility.yul\":8948:8950   */\n      0x40\n        /* \"#utility.yul\":8943:8946   */\n      dup3\n        /* \"#utility.yul\":8939:8951   */\n      add\n        /* \"#utility.yul\":8932:8951   */\n      swap1\n      pop\n        /* \"#utility.yul\":8591:8957   */\n      swap2\n      swap1\n      pop\n      jump\t// out\n        /* \"#utility.yul\":8963:9382   */\n    tag_69:\n        /* \"#utility.yul\":9129:9133   */\n      0x00\n        /* \"#utility.yul\":9167:9169   */\n      0x20\n        /* \"#utility.yul\":9156:9165   */\n      dup3\n        /* \"#utility.yul\":9152:9170   */\n      add\n        /* \"#utility.yul\":9144:9170   */\n      swap1\n      pop\n        /* \"#utility.yul\":9216:9225   */\n      dup2\n        /* \"#utility.yul\":9210:9214   */\n      dup2\n        /* \"#utility.yul\":9206:9226   */\n      sub\n        /* \"#utility.yul\":9202:9203   */\n      0x00\n        /* \"#utility.yul\":9191:9200   */\n      dup4\n        /* \"#utility.yul\":9187:9204   */\n      add\n        /* \"#utility.yul\":9180:9227   */\n      mstore\n        /* \"#utility.yul\":9244:9375   */\n      tag_266\n        /* \"#utility.yul\":9370:9374   */\n      dup2\n        /* \"#utility.yul\":9244:9375   */\n      tag_142\n      jump\t// in\n    tag_266:\n        /* \"#utility.yul\":9236:9375   */\n      swap1\n      pop\n        /* \"#utility.yul\":8963:9382   */\n      swap2\n      swap1\n      pop\n      jump\t// out\n        /* \"#utility.yul\":9388:9568   */\n    tag_73:\n        /* \"#utility.yul\":9436:9513   */\n      0x4e487b7100000000000000000000000000000000000000000000000000000000\n        /* \"#utility.yul\":9433:9434   */\n      0x00\n        /* \"#utility.yul\":9426:9514   */\n      mstore\n        /* \"#utility.yul\":9533:9537   */\n      0x32\n        /* \"#utility.yul\":9530:9531   */\n      0x04\n        /* \"#utility.yul\":9523:9538   */\n      mstore\n        /* \"#utility.yul\":9557:9561   */\n      0x24\n        /* \"#utility.yul\":9554:9555   */\n      0x00\n        /* \"#utility.yul\":9547:9562   */\n      revert\n        /* \"#utility.yul\":9574:9751   */\n    tag_143:\n        /* \"#utility.yul\":9714:9743   */\n      0x5265717565737420697320616c726561647920636f6d706c6574650000000000\n        /* \"#utility.yul\":9710:9711   */\n      0x00\n        /* \"#utility.yul\":9702:9708   */\n      dup3\n        /* \"#utility.yul\":9698:9712   */\n      add\n        /* \"#utility.yul\":9691:9744   */\n      mstore\n        /* \"#utility.yul\":9574:9751   */\n      pop\n      jump\t// out\n        /* \"#utility.yul\":9757:10123   */\n    tag_144:\n        /* \"#utility.yul\":9899:9902   */\n      0x00\n        /* \"#utility.yul\":9920:9987   */\n      tag_270\n        /* \"#utility.yul\":9984:9986   */\n      0x1b\n        /* \"#utility.yul\":9979:9982   */\n      dup4\n        /* \"#utility.yul\":9920:9987   */\n      tag_128\n      jump\t// in\n    tag_270:\n        /* \"#utility.yul\":9913:9987   */\n      swap2\n      pop\n        /* \"#utility.yul\":9996:10089   */\n      tag_271\n        /* \"#utility.yul\":10085:10088   */\n      dup3\n        /* \"#utility.yul\":9996:10089   */\n      tag_143\n      jump\t// in\n    tag_271:\n        /* \"#utility.yul\":10114:10116   */\n      0x20\n        /* \"#utility.yul\":10109:10112   */\n      dup3\n        /* \"#utility.yul\":10105:10117   */\n      add\n        /* \"#utility.yul\":10098:10117   */\n      swap1\n      pop\n        /* \"#utility.yul\":9757:10123   */\n      swap2\n      swap1\n      pop\n      jump\t// out\n        /* \"#utility.yul\":10129:10548   */\n    tag_77:\n        /* \"#utility.yul\":10295:10299   */\n      0x00\n        /* \"#utility.yul\":10333:10335   */\n      0x20\n        /* \"#utility.yul\":10322:10331   */\n      dup3\n        /* \"#utility.yul\":10318:10336   */\n      add\n        /* \"#utility.yul\":10310:10336   */\n      swap1\n      pop\n        /* \"#utility.yul\":10382:10391   */\n      dup2\n        /* \"#utility.yul\":10376:10380   */\n      dup2\n        /* \"#utility.yul\":10372:10392   */\n      sub\n        /* \"#utility.yul\":10368:10369   */\n      0x00\n        /* \"#utility.yul\":10357:10366   */\n      dup4\n        /* \"#utility.yul\":10353:10370   */\n      add\n        /* \"#utility.yul\":10346:10393   */\n      mstore\n        /* \"#utility.yul\":10410:10541   */\n      tag_273\n        /* \"#utility.yul\":10536:10540   */\n      dup2\n        /* \"#utility.yul\":10410:10541   */\n      tag_144\n      jump\t// in\n    tag_273:\n        /* \"#utility.yul\":10402:10541   */\n      swap1\n      pop\n        /* \"#utility.yul\":10129:10548   */\n      swap2\n      swap1\n      pop\n      jump\t// out\n        /* \"#utility.yul\":10554:10734   */\n    tag_145:\n        /* \"#utility.yul\":10602:10679   */\n      0x4e487b7100000000000000000000000000000000000000000000000000000000\n        /* \"#utility.yul\":10599:10600   */\n      0x00\n        /* \"#utility.yul\":10592:10680   */\n      mstore\n        /* \"#utility.yul\":10699:10703   */\n      0x12\n        /* \"#utility.yul\":10696:10697   */\n      0x04\n        /* \"#utility.yul\":10689:10704   */\n      mstore\n        /* \"#utility.yul\":10723:10727   */\n      0x24\n        /* \"#utility.yul\":10720:10721   */\n      0x00\n        /* \"#utility.yul\":10713:10728   */\n      revert\n        /* \"#utility.yul\":10740:10920   */\n    tag_146:\n        /* \"#utility.yul\":10788:10865   */\n      0x4e487b7100000000000000000000000000000000000000000000000000000000\n        /* \"#utility.yul\":10785:10786   */\n      0x00\n        /* \"#utility.yul\":10778:10866   */\n      mstore\n        /* \"#utility.yul\":10885:10889   */\n      0x11\n        /* \"#utility.yul\":10882:10883   */\n      0x04\n        /* \"#utility.yul\":10875:10890   */\n      mstore\n        /* \"#utility.yul\":10909:10913   */\n      0x24\n        /* \"#utility.yul\":10906:10907   */\n      0x00\n        /* \"#utility.yul\":10899:10914   */\n      revert\n        /* \"#utility.yul\":10926:11111   */\n    tag_79:\n        /* \"#utility.yul\":10966:10967   */\n      0x00\n        /* \"#utility.yul\":10983:11003   */\n      tag_277\n        /* \"#utility.yul\":11001:11002   */\n      dup3\n        /* \"#utility.yul\":10983:11003   */\n      tag_116\n      jump\t// in\n    tag_277:\n        /* \"#utility.yul\":10978:11003   */\n      swap2\n      pop\n        /* \"#utility.yul\":11017:11037   */\n      tag_278\n        /* \"#utility.yul\":11035:11036   */\n      dup4\n        /* \"#utility.yul\":11017:11037   */\n      tag_116\n      jump\t// in\n    tag_278:\n        /* \"#utility.yul\":11012:11037   */\n      swap3\n      pop\n        /* \"#utility.yul\":11056:11057   */\n      dup3\n        /* \"#utility.yul\":11046:11081   */\n      tag_279\n      jumpi\n        /* \"#utility.yul\":11061:11079   */\n      tag_280\n      tag_145\n      jump\t// in\n    tag_280:\n        /* \"#utility.yul\":11046:11081   */\n    tag_279:\n        /* \"#utility.yul\":11103:11104   */\n      dup3\n        /* \"#utility.yul\":11100:11101   */\n      dup3\n        /* \"#utility.yul\":11096:11105   */\n      div\n        /* \"#utility.yul\":11091:11105   */\n      swap1\n      pop\n        /* \"#utility.yul\":10926:11111   */\n      swap3\n      swap2\n      pop\n      pop\n      jump\t// out\n        /* \"#utility.yul\":11117:11287   */\n    tag_147:\n        /* \"#utility.yul\":11257:11279   */\n      0x4e6f7420656e6f75676820617070726f76616c73000000000000000000000000\n        /* \"#utility.yul\":11253:11254   */\n      0x00\n        /* \"#utility.yul\":11245:11251   */\n      dup3\n        /* \"#utility.yul\":11241:11255   */\n      add\n        /* \"#utility.yul\":11234:11280   */\n      mstore\n        /* \"#utility.yul\":11117:11287   */\n      pop\n      jump\t// out\n        /* \"#utility.yul\":11293:11659   */\n    tag_148:\n        /* \"#utility.yul\":11435:11438   */\n      0x00\n        /* \"#utility.yul\":11456:11523   */\n      tag_283\n        /* \"#utility.yul\":11520:11522   */\n      0x14\n        /* \"#utility.yul\":11515:11518   */\n      dup4\n        /* \"#utility.yul\":11456:11523   */\n      tag_128\n      jump\t// in\n    tag_283:\n        /* \"#utility.yul\":11449:11523   */\n      swap2\n      pop\n        /* \"#utility.yul\":11532:11625   */\n      tag_284\n        /* \"#utility.yul\":11621:11624   */\n      dup3\n        /* \"#utility.yul\":11532:11625   */\n      tag_147\n      jump\t// in\n    tag_284:\n        /* \"#utility.yul\":11650:11652   */\n      0x20\n        /* \"#utility.yul\":11645:11648   */\n      dup3\n        /* \"#utility.yul\":11641:11653   */\n      add\n        /* \"#utility.yul\":11634:11653   */\n      swap1\n      pop\n        /* \"#utility.yul\":11293:11659   */\n      swap2\n      swap1\n      pop\n      jump\t// out\n        /* \"#utility.yul\":11665:12084   */\n    tag_82:\n        /* \"#utility.yul\":11831:11835   */\n      0x00\n        /* \"#utility.yul\":11869:11871   */\n      0x20\n        /* \"#utility.yul\":11858:11867   */\n      dup3\n        /* \"#utility.yul\":11854:11872   */\n      add\n        /* \"#utility.yul\":11846:11872   */\n      swap1\n      pop\n        /* \"#utility.yul\":11918:11927   */\n      dup2\n        /* \"#utility.yul\":11912:11916   */\n      dup2\n        /* \"#utility.yul\":11908:11928   */\n      sub\n        /* \"#utility.yul\":11904:11905   */\n      0x00\n        /* \"#utility.yul\":11893:11902   */\n      dup4\n        /* \"#utility.yul\":11889:11906   */\n      add\n        /* \"#utility.yul\":11882:11929   */\n      mstore\n        /* \"#utility.yul\":11946:12077   */\n      tag_286\n        /* \"#utility.yul\":12072:12076   */\n      dup2\n        /* \"#utility.yul\":11946:12077   */\n      tag_148\n      jump\t// in\n    tag_286:\n        /* \"#utility.yul\":11938:12077   */\n      swap1\n      pop\n        /* \"#utility.yul\":11665:12084   */\n      swap2\n      swap1\n      pop\n      jump\t// out\n        /* \"#utility.yul\":12090:12270   */\n    tag_149:\n        /* \"#utility.yul\":12138:12215   */\n      0x4e487b7100000000000000000000000000000000000000000000000000000000\n        /* \"#utility.yul\":12135:12136   */\n      0x00\n        /* \"#utility.yul\":12128:12216   */\n      mstore\n        /* \"#utility.yul\":12235:12239   */\n      0x22\n        /* \"#utility.yul\":12232:12233   */\n      0x04\n        /* \"#utility.yul\":12225:12240   */\n      mstore\n        /* \"#utility.yul\":12259:12263   */\n      0x24\n        /* \"#utility.yul\":12256:12257   */\n      0x00\n        /* \"#utility.yul\":12249:12264   */\n      revert\n        /* \"#utility.yul\":12276:12596   */\n    tag_90:\n        /* \"#utility.yul\":12320:12326   */\n      0x00\n        /* \"#utility.yul\":12357:12358   */\n      0x02\n        /* \"#utility.yul\":12351:12355   */\n      dup3\n        /* \"#utility.yul\":12347:12359   */\n      div\n        /* \"#utility.yul\":12337:12359   */\n      swap1\n      pop\n        /* \"#utility.yul\":12404:12405   */\n      0x01\n        /* \"#utility.yul\":12398:12402   */\n      dup3\n        /* \"#utility.yul\":12394:12406   */\n      and\n        /* \"#utility.yul\":12425:12443   */\n      dup1\n        /* \"#utility.yul\":12415:12496   */\n      tag_289\n      jumpi\n        /* \"#utility.yul\":12481:12485   */\n      0x7f\n        /* \"#utility.yul\":12473:12479   */\n      dup3\n        /* \"#utility.yul\":12469:12486   */\n      and\n        /* \"#utility.yul\":12459:12486   */\n      swap2\n      pop\n        /* \"#utility.yul\":12415:12496   */\n    tag_289:\n        /* \"#utility.yul\":12543:12545   */\n      0x20\n        /* \"#utility.yul\":12535:12541   */\n      dup3\n        /* \"#utility.yul\":12532:12546   */\n      lt\n        /* \"#utility.yul\":12512:12530   */\n      dup2\n        /* \"#utility.yul\":12509:12547   */\n      sub\n        /* \"#utility.yul\":12506:12590   */\n      tag_290\n      jumpi\n        /* \"#utility.yul\":12562:12580   */\n      tag_291\n      tag_149\n      jump\t// in\n    tag_291:\n        /* \"#utility.yul\":12506:12590   */\n    tag_290:\n        /* \"#utility.yul\":12327:12596   */\n      pop\n        /* \"#utility.yul\":12276:12596   */\n      swap2\n      swap1\n      pop\n      jump\t// out\n        /* \"#utility.yul\":12602:12743   */\n    tag_150:\n        /* \"#utility.yul\":12651:12655   */\n      0x00\n        /* \"#utility.yul\":12674:12677   */\n      dup2\n        /* \"#utility.yul\":12666:12677   */\n      swap1\n      pop\n        /* \"#utility.yul\":12697:12700   */\n      dup2\n        /* \"#utility.yul\":12694:12695   */\n      0x00\n        /* \"#utility.yul\":12687:12701   */\n      mstore\n        /* \"#utility.yul\":12731:12735   */\n      0x20\n        /* \"#utility.yul\":12728:12729   */\n      0x00\n        /* \"#utility.yul\":12718:12736   */\n      keccak256\n        /* \"#utility.yul\":12710:12736   */\n      swap1\n      pop\n        /* \"#utility.yul\":12602:12743   */\n      swap2\n      swap1\n      pop\n      jump\t// out\n        /* \"#utility.yul\":12749:12842   */\n    tag_151:\n        /* \"#utility.yul\":12786:12792   */\n      0x00\n        /* \"#utility.yul\":12833:12835   */\n      0x20\n        /* \"#utility.yul\":12828:12830   */\n      0x1f\n        /* \"#utility.yul\":12821:12826   */\n      dup4\n        /* \"#utility.yul\":12817:12831   */\n      add\n        /* \"#utility.yul\":12813:12836   */\n      div\n        /* \"#utility.yul\":12803:12836   */\n      swap1\n      pop\n        /* \"#utility.yul\":12749:12842   */\n      swap2\n      swap1\n      pop\n      jump\t// out\n        /* \"#utility.yul\":12848:12955   */\n    tag_152:\n        /* \"#utility.yul\":12892:12900   */\n      0x00\n        /* \"#utility.yul\":12942:12947   */\n      dup3\n        /* \"#utility.yul\":12936:12940   */\n      dup3\n        /* \"#utility.yul\":12932:12948   */\n      shl\n        /* \"#utility.yul\":12911:12948   */\n      swap1\n      pop\n        /* \"#utility.yul\":12848:12955   */\n      swap3\n      swap2\n      pop\n      pop\n      jump\t// out\n        /* \"#utility.yul\":12961:13354   */\n    tag_153:\n        /* \"#utility.yul\":13030:13036   */\n      0x00\n        /* \"#utility.yul\":13080:13081   */\n      0x08\n        /* \"#utility.yul\":13068:13078   */\n      dup4\n        /* \"#utility.yul\":13064:13082   */\n      mul\n        /* \"#utility.yul\":13103:13200   */\n      tag_296\n        /* \"#utility.yul\":13133:13199   */\n      0xffffffffffffffffffffffffffffffffffffffffffffffffffffffffffffffff\n        /* \"#utility.yul\":13122:13131   */\n      dup3\n        /* \"#utility.yul\":13103:13200   */\n      tag_152\n      jump\t// in\n    tag_296:\n        /* \"#utility.yul\":13221:13260   */\n      tag_297\n        /* \"#utility.yul\":13251:13259   */\n      dup7\n        /* \"#utility.yul\":13240:13249   */\n      dup4\n        /* \"#utility.yul\":13221:13260   */\n      tag_152\n      jump\t// in\n    tag_297:\n        /* \"#utility.yul\":13209:13260   */\n      swap6\n      pop\n        /* \"#utility.yul\":13293:13297   */\n      dup1\n        /* \"#utility.yul\":13289:13298   */\n      not\n        /* \"#utility.yul\":13282:13287   */\n      dup5\n        /* \"#utility.yul\":13278:13299   */\n      and\n        /* \"#utility.yul\":13269:13299   */\n      swap4\n      pop\n        /* \"#utility.yul\":13342:13346   */\n      dup1\n        /* \"#utility.yul\":13332:13340   */\n      dup7\n        /* \"#utility.yul\":13328:13347   */\n      and\n        /* \"#utility.yul\":13321:13326   */\n      dup5\n        /* \"#utility.yul\":13318:13348   */\n      or\n        /* \"#utility.yul\":13308:13348   */\n      swap3\n      pop\n        /* \"#utility.yul\":13037:13354   */\n      pop\n      pop\n        /* \"#utility.yul\":12961:13354   */\n      swap4\n      swap3\n      pop\n      pop\n      pop\n      jump\t// out\n        /* \"#utility.yul\":13360:13420   */\n    tag_154:\n        /* \"#utility.yul\":13388:13391   */\n      0x00\n        /* \"#utility.yul\":13409:13414   */\n      dup2\n        /* \"#utility.yul\":13402:13414   */\n      swap1\n      pop\n        /* \"#utility.yul\":13360:13420   */\n      swap2\n      swap1\n      pop\n      jump\t// out\n        /* \"#utility.yul\":13426:13568   */\n    tag_155:\n        /* \"#utility.yul\":13476:13485   */\n      0x00\n        /* \"#utility.yul\":13509:13562   */\n      tag_300\n        /* \"#utility.yul\":13527:13561   */\n      tag_301\n        /* \"#utility.yul\":13536:13560   */\n      tag_302\n        /* \"#utility.yul\":13554:13559   */\n      dup5\n        /* \"#utility.yul\":13536:13560   */\n      tag_116\n      jump\t// in\n    tag_302:\n        /* \"#utility.yul\":13527:13561   */\n      tag_154\n      jump\t// in\n    tag_301:\n        /* \"#utility.yul\":13509:13562   */\n      tag_116\n      jump\t// in\n    tag_300:\n        /* \"#utility.yul\":13496:13562   */\n      swap1\n      pop\n        /* \"#utility.yul\":13426:13568   */\n      swap2\n      swap1\n      pop\n      jump\t// out\n        /* \"#utility.yul\":13574:13649   */\n    tag_156:\n        /* \"#utility.yul\":13617:13620   */\n      0x00\n        /* \"#utility.yul\":13638:13643   */\n      dup2\n        /* \"#utility.yul\":13631:13643   */\n      swap1\n      pop\n        /* \"#utility.yul\":13574:13649   */\n      swap2\n      swap1\n      pop\n      jump\t// out\n        /* \"#utility.yul\":13655:13924   */\n    tag_157:\n        /* \"#utility.yul\":13765:13804   */\n      tag_305\n        /* \"#utility.yul\":13796:13803   */\n      dup4\n        /* \"#utility.yul\":13765:13804   */\n      tag_155\n      jump\t// in\n    tag_305:\n        /* \"#utility.yul\":13826:13917   */\n      tag_306\n        /* \"#utility.yul\":13875:13916   */\n      tag_307\n        /* \"#utility.yul\":13899:13915   */\n      dup3\n        /* \"#utility.yul\":13875:13916   */\n      tag_156\n      jump\t// in\n    tag_307:\n        /* \"#utility.yul\":13867:13873   */\n      dup5\n        /* \"#utility.yul\":13860:13864   */\n      dup5\n        /* \"#utility.yul\":13854:13865   */\n      sload\n        /* \"#utility.yul\":13826:13917   */\n      tag_153\n      jump\t// in\n    tag_306:\n        /* \"#utility.yul\":13820:13824   */\n      dup3\n        /* \"#utility.yul\":13813:13918   */\n      sstore\n        /* \"#utility.yul\":13731:13924   */\n      pop\n        /* \"#utility.yul\":13655:13924   */\n      pop\n      pop\n      pop\n      jump\t// out\n        /* \"#utility.yul\":13930:14003   */\n    tag_158:\n        /* \"#utility.yul\":13975:13978   */\n      0x00\n        /* \"#utility.yul\":13930:14003   */\n      swap1\n      jump\t// out\n        /* \"#utility.yul\":14009:14198   */\n    tag_159:\n        /* \"#utility.yul\":14086:14118   */\n      tag_310\n      tag_158\n      jump\t// in\n    tag_310:\n        /* \"#utility.yul\":14127:14192   */\n      tag_311\n        /* \"#utility.yul\":14185:14191   */\n      dup2\n        /* \"#utility.yul\":14177:14183   */\n      dup5\n        /* \"#utility.yul\":14171:14175   */\n      dup5\n        /* \"#utility.yul\":14127:14192   */\n      tag_157\n      jump\t// in\n    tag_311:\n        /* \"#utility.yul\":14062:14198   */\n      pop\n        /* \"#utility.yul\":14009:14198   */\n      pop\n      pop\n      jump\t// out\n        /* \"#utility.yul\":14204:14390   */\n    tag_160:\n        /* \"#utility.yul\":14264:14384   */\n    tag_313:\n        /* \"#utility.yul\":14281:14284   */\n      dup2\n        /* \"#utility.yul\":14274:14279   */\n      dup2\n        /* \"#utility.yul\":14271:14285   */\n      lt\n        /* \"#utility.yul\":14264:14384   */\n      iszero\n      tag_315\n      jumpi\n        /* \"#utility.yul\":14335:14374   */\n      tag_316\n        /* \"#utility.yul\":14372:14373   */\n      0x00\n        /* \"#utility.yul\":14365:14370   */\n      dup3\n        /* \"#utility.yul\":14335:14374   */\n      tag_159\n      jump\t// in\n    tag_316:\n        /* \"#utility.yul\":14308:14309   */\n      0x01\n        /* \"#utility.yul\":14301:14306   */\n      dup2\n        /* \"#utility.yul\":14297:14310   */\n      add\n        /* \"#utility.yul\":14288:14310   */\n      swap1\n      pop\n        /* \"#utility.yul\":14264:14384   */\n      jump(tag_313)\n    tag_315:\n        /* \"#utility.yul\":14204:14390   */\n      pop\n      pop\n      jump\t// out\n        /* \"#utility.yul\":14396:14939   */\n    tag_161:\n        /* \"#utility.yul\":14497:14499   */\n      0x1f\n        /* \"#utility.yul\":14492:14495   */\n      dup3\n        /* \"#utility.yul\":14489:14500   */\n      gt\n        /* \"#utility.yul\":14486:14932   */\n      iszero\n      tag_318\n      jumpi\n        /* \"#utility.yul\":14531:14569   */\n      tag_319\n        /* \"#utility.yul\":14563:14568   */\n      dup2\n        /* \"#utility.yul\":14531:14569   */\n      tag_150\n      jump\t// in\n    tag_319:\n        /* \"#utility.yul\":14615:14644   */\n      tag_320\n        /* \"#utility.yul\":14633:14643   */\n      dup5\n        /* \"#utility.yul\":14615:14644   */\n      tag_151\n      jump\t// in\n    tag_320:\n        /* \"#utility.yul\":14605:14613   */\n      dup2\n        /* \"#utility.yul\":14601:14645   */\n      add\n        /* \"#utility.yul\":14798:14800   */\n      0x20\n        /* \"#utility.yul\":14786:14796   */\n      dup6\n        /* \"#utility.yul\":14783:14801   */\n      lt\n        /* \"#utility.yul\":14780:14829   */\n      iszero\n      tag_321\n      jumpi\n        /* \"#utility.yul\":14819:14827   */\n      dup2\n        /* \"#utility.yul\":14804:14827   */\n      swap1\n      pop\n        /* \"#utility.yul\":14780:14829   */\n    tag_321:\n        /* \"#utility.yul\":14842:14922   */\n      tag_322\n        /* \"#utility.yul\":14898:14920   */\n      tag_323\n        /* \"#utility.yul\":14916:14919   */\n      dup6\n        /* \"#utility.yul\":14898:14920   */\n      tag_151\n      jump\t// in\n    tag_323:\n        /* \"#utility.yul\":14888:14896   */\n      dup4\n        /* \"#utility.yul\":14884:14921   */\n      add\n        /* \"#utility.yul\":14871:14882   */\n      dup3\n        /* \"#utility.yul\":14842:14922   */\n      tag_160\n      jump\t// in\n    tag_322:\n        /* \"#utility.yul\":14501:14932   */\n      pop\n      pop\n        /* \"#utility.yul\":14486:14932   */\n    tag_318:\n        /* \"#utility.yul\":14396:14939   */\n      pop\n      pop\n      pop\n      jump\t// out\n        /* \"#utility.yul\":14945:15062   */\n    tag_162:\n        /* \"#utility.yul\":14999:15007   */\n      0x00\n        /* \"#utility.yul\":15049:15054   */\n      dup3\n        /* \"#utility.yul\":15043:15047   */\n      dup3\n        /* \"#utility.yul\":15039:15055   */\n      shr\n        /* \"#utility.yul\":15018:15055   */\n      swap1\n      pop\n        /* \"#utility.yul\":14945:15062   */\n      swap3\n      swap2\n      pop\n      pop\n      jump\t// out\n        /* \"#utility.yul\":15068:15237   */\n    tag_163:\n        /* \"#utility.yul\":15112:15118   */\n      0x00\n        /* \"#utility.yul\":15145:15196   */\n      tag_326\n        /* \"#utility.yul\":15193:15194   */\n      0x00\n        /* \"#utility.yul\":15189:15195   */\n      not\n        /* \"#utility.yul\":15181:15186   */\n      dup5\n        /* \"#utility.yul\":15178:15179   */\n      0x08\n        /* \"#utility.yul\":15174:15187   */\n      mul\n        /* \"#utility.yul\":15145:15196   */\n      tag_162\n      jump\t// in\n    tag_326:\n        /* \"#utility.yul\":15141:15197   */\n      not\n        /* \"#utility.yul\":15226:15230   */\n      dup1\n        /* \"#utility.yul\":15220:15224   */\n      dup4\n        /* \"#utility.yul\":15216:15231   */\n      and\n        /* \"#utility.yul\":15206:15231   */\n      swap2\n      pop\n        /* \"#utility.yul\":15119:15237   */\n      pop\n        /* \"#utility.yul\":15068:15237   */\n      swap3\n      swap2\n      pop\n      pop\n      jump\t// out\n        /* \"#utility.yul\":15242:15537   */\n    tag_164:\n        /* \"#utility.yul\":15318:15322   */\n      0x00\n        /* \"#utility.yul\":15464:15493   */\n      tag_328\n        /* \"#utility.yul\":15489:15492   */\n      dup4\n        /* \"#utility.yul\":15483:15487   */\n      dup4\n        /* \"#utility.yul\":15464:15493   */\n      tag_163\n      jump\t// in\n    tag_328:\n        /* \"#utility.yul\":15456:15493   */\n      swap2\n      pop\n        /* \"#utility.yul\":15526:15529   */\n      dup3\n        /* \"#utility.yul\":15523:15524   */\n      0x02\n        /* \"#utility.yul\":15519:15530   */\n      mul\n        /* \"#utility.yul\":15513:15517   */\n      dup3\n        /* \"#utility.yul\":15510:15531   */\n      or\n        /* \"#utility.yul\":15502:15531   */\n      swap1\n      pop\n        /* \"#utility.yul\":15242:15537   */\n      swap3\n      swap2\n      pop\n      pop\n      jump\t// out\n        /* \"#utility.yul\":15542:16937   */\n    tag_101:\n        /* \"#utility.yul\":15659:15696   */\n      tag_330\n        /* \"#utility.yul\":15692:15695   */\n      dup3\n        /* \"#utility.yul\":15659:15696   */\n      tag_127\n      jump\t// in\n    tag_330:\n        /* \"#utility.yul\":15761:15779   */\n      0xffffffffffffffff\n        /* \"#utility.yul\":15753:15759   */\n      dup2\n        /* \"#utility.yul\":15750:15780   */\n      gt\n        /* \"#utility.yul\":15747:15803   */\n      iszero\n      tag_331\n      jumpi\n        /* \"#utility.yul\":15783:15801   */\n      tag_332\n      tag_134\n      jump\t// in\n    tag_332:\n        /* \"#utility.yul\":15747:15803   */\n    tag_331:\n        /* \"#utility.yul\":15827:15865   */\n      tag_333\n        /* \"#utility.yul\":15859:15863   */\n      dup3\n        /* \"#utility.yul\":15853:15864   */\n      sload\n        /* \"#utility.yul\":15827:15865   */\n      tag_90\n      jump\t// in\n    tag_333:\n        /* \"#utility.yul\":15912:15979   */\n      tag_334\n        /* \"#utility.yul\":15972:15978   */\n      dup3\n        /* \"#utility.yul\":15964:15970   */\n      dup3\n        /* \"#utility.yul\":15958:15962   */\n      dup6\n        /* \"#utility.yul\":15912:15979   */\n      tag_161\n      jump\t// in\n    tag_334:\n        /* \"#utility.yul\":16006:16007   */\n      0x00\n        /* \"#utility.yul\":16030:16034   */\n      0x20\n        /* \"#utility.yul\":16017:16034   */\n      swap1\n      pop\n        /* \"#utility.yul\":16062:16064   */\n      0x1f\n        /* \"#utility.yul\":16054:16060   */\n      dup4\n        /* \"#utility.yul\":16051:16065   */\n      gt\n        /* \"#utility.yul\":16079:16080   */\n      0x01\n        /* \"#utility.yul\":16074:16692   */\n      dup2\n      eq\n      tag_336\n      jumpi\n        /* \"#utility.yul\":16736:16737   */\n      0x00\n        /* \"#utility.yul\":16753:16759   */\n      dup5\n        /* \"#utility.yul\":16750:16827   */\n      iszero\n      tag_337\n      jumpi\n        /* \"#utility.yul\":16802:16811   */\n      dup3\n        /* \"#utility.yul\":16797:16800   */\n      dup8\n        /* \"#utility.yul\":16793:16812   */\n      add\n        /* \"#utility.yul\":16787:16813   */\n      mload\n        /* \"#utility.yul\":16778:16813   */\n      swap1\n      pop\n        /* \"#utility.yul\":16750:16827   */\n    tag_337:\n        /* \"#utility.yul\":16853:16920   */\n      tag_338\n        /* \"#utility.yul\":16913:16919   */\n      dup6\n        /* \"#utility.yul\":16906:16911   */\n      dup3\n        /* \"#utility.yul\":16853:16920   */\n      tag_164\n      jump\t// in\n    tag_338:\n        /* \"#utility.yul\":16847:16851   */\n      dup7\n        /* \"#utility.yul\":16840:16921   */\n      sstore\n        /* \"#utility.yul\":16709:16931   */\n      pop\n        /* \"#utility.yul\":16044:16931   */\n      jump(tag_335)\n        /* \"#utility.yul\":16074:16692   */\n    tag_336:\n        /* \"#utility.yul\":16126:16130   */\n      0x1f\n        /* \"#utility.yul\":16122:16131   */\n      not\n        /* \"#utility.yul\":16114:16120   */\n      dup5\n        /* \"#utility.yul\":16110:16132   */\n      and\n        /* \"#utility.yul\":16160:16197   */\n      tag_339\n        /* \"#utility.yul\":16192:16196   */\n      dup7\n        /* \"#utility.yul\":16160:16197   */\n      tag_150\n      jump\t// in\n    tag_339:\n        /* \"#utility.yul\":16219:16220   */\n      0x00\n        /* \"#utility.yul\":16233:16441   */\n    tag_340:\n        /* \"#utility.yul\":16247:16254   */\n      dup3\n        /* \"#utility.yul\":16244:16245   */\n      dup2\n        /* \"#utility.yul\":16241:16255   */\n      lt\n        /* \"#utility.yul\":16233:16441   */\n      iszero\n      tag_342\n      jumpi\n        /* \"#utility.yul\":16326:16335   */\n      dup5\n        /* \"#utility.yul\":16321:16324   */\n      dup10\n        /* \"#utility.yul\":16317:16336   */\n      add\n        /* \"#utility.yul\":16311:16337   */\n      mload\n        /* \"#utility.yul\":16303:16309   */\n      dup3\n        /* \"#utility.yul\":16296:16338   */\n      sstore\n        /* \"#utility.yul\":16377:16378   */\n      0x01\n        /* \"#utility.yul\":16369:16375   */\n      dup3\n        /* \"#utility.yul\":16365:16379   */\n      add\n        /* \"#utility.yul\":16355:16379   */\n      swap2\n      pop\n        /* \"#utility.yul\":16424:16426   */\n      0x20\n        /* \"#utility.yul\":16413:16422   */\n      dup6\n        /* \"#utility.yul\":16409:16427   */\n      add\n        /* \"#utility.yul\":16396:16427   */\n      swap5\n      pop\n        /* \"#utility.yul\":16270:16274   */\n      0x20\n        /* \"#utility.yul\":16267:16268   */\n      dup2\n        /* \"#utility.yul\":16263:16275   */\n      add\n        /* \"#utility.yul\":16258:16275   */\n      swap1\n      pop\n        /* \"#utility.yul\":16233:16441   */\n      jump(tag_340)\n    tag_342:\n        /* \"#utility.yul\":16469:16475   */\n      dup7\n        /* \"#utility.yul\":16460:16467   */\n      dup4\n        /* \"#utility.yul\":16457:16476   */\n      lt\n        /* \"#utility.yul\":16454:16633   */\n      iszero\n      tag_343\n      jumpi\n        /* \"#utility.yul\":16527:16536   */\n      dup5\n        /* \"#utility.yul\":16522:16525   */\n      dup10\n        /* \"#utility.yul\":16518:16537   */\n      add\n        /* \"#utility.yul\":16512:16538   */\n      mload\n        /* \"#utility.yul\":16570:16618   */\n      tag_344\n        /* \"#utility.yul\":16612:16616   */\n      0x1f\n        /* \"#utility.yul\":16604:16610   */\n      dup10\n        /* \"#utility.yul\":16600:16617   */\n      and\n        /* \"#utility.yul\":16589:16598   */\n      dup3\n        /* \"#utility.yul\":16570:16618   */\n      tag_163\n      jump\t// in\n    tag_344:\n        /* \"#utility.yul\":16562:16568   */\n      dup4\n        /* \"#utility.yul\":16555:16619   */\n      sstore\n        /* \"#utility.yul\":16477:16633   */\n      pop\n        /* \"#utility.yul\":16454:16633   */\n    tag_343:\n        /* \"#utility.yul\":16679:16680   */\n      0x01\n        /* \"#utility.yul\":16675:16676   */\n      0x02\n        /* \"#utility.yul\":16667:16673   */\n      dup9\n        /* \"#utility.yul\":16663:16677   */\n      mul\n        /* \"#utility.yul\":16659:16681   */\n      add\n        /* \"#utility.yul\":16653:16657   */\n      dup9\n        /* \"#utility.yul\":16646:16682   */\n      sstore\n        /* \"#utility.yul\":16081:16692   */\n      pop\n      pop\n      pop\n        /* \"#utility.yul\":16044:16931   */\n    tag_335:\n      pop\n        /* \"#utility.yul\":15634:16937   */\n      pop\n      pop\n      pop\n        /* \"#utility.yul\":15542:16937   */\n      pop\n      pop\n      jump\t// out\n        /* \"#utility.yul\":16943:17176   */\n    tag_105:\n        /* \"#utility.yul\":16982:16985   */\n      0x00\n        /* \"#utility.yul\":17005:17029   */\n      tag_346\n        /* \"#utility.yul\":17023:17028   */\n      dup3\n        /* \"#utility.yul\":17005:17029   */\n      tag_116\n      jump\t// in\n    tag_346:\n        /* \"#utility.yul\":16996:17029   */\n      swap2\n      pop\n        /* \"#utility.yul\":17051:17117   */\n      0xffffffffffffffffffffffffffffffffffffffffffffffffffffffffffffffff\n        /* \"#utility.yul\":17044:17049   */\n      dup3\n        /* \"#utility.yul\":17041:17118   */\n      sub\n        /* \"#utility.yul\":17038:17141   */\n      tag_347\n      jumpi\n        /* \"#utility.yul\":17121:17139   */\n      tag_348\n      tag_146\n      jump\t// in\n    tag_348:\n        /* \"#utility.yul\":17038:17141   */\n    tag_347:\n        /* \"#utility.yul\":17168:17169   */\n      0x01\n        /* \"#utility.yul\":17161:17166   */\n      dup3\n        /* \"#utility.yul\":17157:17170   */\n      add\n        /* \"#utility.yul\":17150:17170   */\n      swap1\n      pop\n        /* \"#utility.yul\":16943:17176   */\n      swap2\n      swap1\n      pop\n      jump\t// out\n\n    auxdata: 0xa264697066735822122062c8f23d4f7bb7add0e795a80c1b43b0bc049b669a23a912f31e5c81e124dff364736f6c63430008130033\n}\n",
    "bytecode": {
      "linkReferences": {},
      "object": "60806040523480156200001157600080fd5b506040516200148a3803806200148a83398181016040528101906200003791906200012c565b8160028190555080600160006101000a81548173ffffffffffffffffffffffffffffffffffffffff021916908373ffffffffffffffffffffffffffffffffffffffff160217905550505062000173565b600080fd5b6000819050919050565b620000a1816200008c565b8114620000ad57600080fd5b50565b600081519050620000c18162000096565b92915050565b600073ffffffffffffffffffffffffffffffffffffffff82169050919050565b6000620000f482620000c7565b9050919050565b6200010681620000e7565b81146200011257600080fd5b50565b6000815190506200012681620000fb565b92915050565b6000806040838503121562000146576200014562000087565b5b60006200015685828601620000b0565b9250506020620001698582860162000115565b9150509250929050565b61130780620001836000396000f3fe60806040526004361061009c5760003560e01c8063481c6a7511610064578063481c6a751461018c57806381d12c58146101b75780638a9cfd55146101f8578063937e09b114610221578063d7bb99ba1461024c578063d7d1bbdb146102565761009c565b806303441006146100a15780630a144391146100ca578063128e9be6146101075780633410452a146101325780634051ddac1461015d575b600080fd5b3480156100ad57600080fd5b506100c860048036038101906100c39190610960565b61027f565b005b3480156100d657600080fd5b506100f160048036038101906100ec91906109eb565b61046a565b6040516100fe9190610a33565b60405180910390f35b34801561011357600080fd5b5061011c61048a565b6040516101299190610a5d565b60405180910390f35b34801561013e57600080fd5b50610147610490565b6040516101549190610a5d565b60405180910390f35b34801561016957600080fd5b5061017261049c565b604051610183959493929190610a87565b60405180910390f35b34801561019857600080fd5b506101a16104e5565b6040516101ae9190610ada565b60405180910390f35b3480156101c357600080fd5b506101de60048036038101906101d99190610960565b61050b565b6040516101ef959493929190610b85565b60405180910390f35b34801561020457600080fd5b5061021f600480360381019061021a9190610d14565b610606565b005b34801561022d57600080fd5b50610236610744565b6040516102439190610a5d565b60405180910390f35b61025461074a565b005b34801561026257600080fd5b5061027d60048036038101906102789190610960565b6107ca565b005b600160009054906101000a900473ffffffffffffffffffffffffffffffffffffffff1673ffffffffffffffffffffffffffffffffffffffff163373ffffffffffffffffffffffffffffffffffffffff161461030f576040517f08c379a000000000000000000000000000000000000000000000000000000000815260040161030690610df5565b60405180910390fd5b600080828154811061032457610323610e15565b5b906000526020600020906005020190508060020160149054906101000a900460ff1615610386576040517f08c379a000000000000000000000000000000000000000000000000000000000815260040161037d90610e90565b60405180910390fd5b60026004546103959190610f0e565b8160030154116103da576040517f08c379a00000000000000000000000000000000000000000000000000000000081526004016103d190610f8b565b60405180910390fd5b8060020160009054906101000a900473ffffffffffffffffffffffffffffffffffffffff1673ffffffffffffffffffffffffffffffffffffffff166108fc82600101549081150290604051600060405180830381858888f19350505050158015610448573d6000803e3d6000fd5b5060018160020160146101000a81548160ff0219169083151502179055505050565b60036020528060005260406000206000915054906101000a900460ff1681565b60045481565b60008080549050905090565b600080600080600060025447600080549050600454600160009054906101000a900473ffffffffffffffffffffffffffffffffffffffff16945094509450945094509091929394565b600160009054906101000a900473ffffffffffffffffffffffffffffffffffffffff1681565b6000818154811061051b57600080fd5b906000526020600020906005020160009150905080600001805461053e90610fda565b80601f016020809104026020016040519081016040528092919081815260200182805461056a90610fda565b80156105b75780601f1061058c576101008083540402835291602001916105b7565b820191906000526020600020905b81548152906001019060200180831161059a57829003601f168201915b5050505050908060010154908060020160009054906101000a900473ffffffffffffffffffffffffffffffffffffffff16908060020160149054906101000a900460ff16908060030154905085565b600160009054906101000a900473ffffffffffffffffffffffffffffffffffffffff1673ffffffffffffffffffffffffffffffffffffffff163373ffffffffffffffffffffffffffffffffffffffff1614610696576040517f08c379a000000000000000000000000000000000000000000000000000000000815260040161068d90610df5565b60405180910390fd5b6000806001816001815401808255809150500390600052602060002090600502019050838160000190816106ca91906111b7565b50828160010181905550818160020160006101000a81548173ffffffffffffffffffffffffffffffffffffffff021916908373ffffffffffffffffffffffffffffffffffffffff16021790555060008160020160146101000a81548160ff0219169083151502179055506000816003018190555050505050565b60025481565b600254341161075857600080fd5b6001600360003373ffffffffffffffffffffffffffffffffffffffff1673ffffffffffffffffffffffffffffffffffffffff16815260200190815260200160002060006101000a81548160ff021916908315150217905550600460008154809291906107c390611289565b9190505550565b60008082815481106107df576107de610e15565b5b90600052602060002090600502019050600360003373ffffffffffffffffffffffffffffffffffffffff1673ffffffffffffffffffffffffffffffffffffffff16815260200190815260200160002060009054906101000a900460ff1661084557600080fd5b8060040160003373ffffffffffffffffffffffffffffffffffffffff1673ffffffffffffffffffffffffffffffffffffffff16815260200190815260200160002060009054906101000a900460ff161561089e57600080fd5b60018160040160003373ffffffffffffffffffffffffffffffffffffffff1673ffffffffffffffffffffffffffffffffffffffff16815260200190815260200160002060006101000a81548160ff02191690831515021790555080600301600081548092919061090d90611289565b91905055505050565b6000604051905090565b600080fd5b600080fd5b6000819050919050565b61093d8161092a565b811461094857600080fd5b50565b60008135905061095a81610934565b92915050565b60006020828403121561097657610975610920565b5b60006109848482850161094b565b91505092915050565b600073ffffffffffffffffffffffffffffffffffffffff82169050919050565b60006109b88261098d565b9050919050565b6109c8816109ad565b81146109d357600080fd5b50565b6000813590506109e5816109bf565b92915050565b600060208284031215610a0157610a00610920565b5b6000610a0f848285016109d6565b91505092915050565b60008115159050919050565b610a2d81610a18565b82525050565b6000602082019050610a486000830184610a24565b92915050565b610a578161092a565b82525050565b6000602082019050610a726000830184610a4e565b92915050565b610a81816109ad565b82525050565b600060a082019050610a9c6000830188610a4e565b610aa96020830187610a4e565b610ab66040830186610a4e565b610ac36060830185610a4e565b610ad06080830184610a78565b9695505050505050565b6000602082019050610aef6000830184610a78565b92915050565b600081519050919050565b600082825260208201905092915050565b60005b83811015610b2f578082015181840152602081019050610b14565b60008484015250505050565b6000601f19601f8301169050919050565b6000610b5782610af5565b610b618185610b00565b9350610b71818560208601610b11565b610b7a81610b3b565b840191505092915050565b600060a0820190508181036000830152610b9f8188610b4c565b9050610bae6020830187610a4e565b610bbb6040830186610a78565b610bc86060830185610a24565b610bd56080830184610a4e565b9695505050505050565b600080fd5b600080fd5b7f4e487b7100000000000000000000000000000000000000000000000000000000600052604160045260246000fd5b610c2182610b3b565b810181811067ffffffffffffffff82111715610c4057610c3f610be9565b5b80604052505050565b6000610c53610916565b9050610c5f8282610c18565b919050565b600067ffffffffffffffff821115610c7f57610c7e610be9565b5b610c8882610b3b565b9050602081019050919050565b82818337600083830152505050565b6000610cb7610cb284610c64565b610c49565b905082815260208101848484011115610cd357610cd2610be4565b5b610cde848285610c95565b509392505050565b600082601f830112610cfb57610cfa610bdf565b5b8135610d0b848260208601610ca4565b91505092915050565b600080600060608486031215610d2d57610d2c610920565b5b600084013567ffffffffffffffff811115610d4b57610d4a610925565b5b610d5786828701610ce6565b9350506020610d688682870161094b565b9250506040610d79868287016109d6565b9150509250925092565b7f546869732066756e6374696f6e206973207265737472696374656420746f207460008201527f6865206d616e6167657200000000000000000000000000000000000000000000602082015250565b6000610ddf602a83610b00565b9150610dea82610d83565b604082019050919050565b60006020820190508181036000830152610e0e81610dd2565b9050919050565b7f4e487b7100000000000000000000000000000000000000000000000000000000600052603260045260246000fd5b7f5265717565737420697320616c726561647920636f6d706c6574650000000000600082015250565b6000610e7a601b83610b00565b9150610e8582610e44565b602082019050919050565b60006020820190508181036000830152610ea981610e6d565b9050919050565b7f4e487b7100000000000000000000000000000000000000000000000000000000600052601260045260246000fd5b7f4e487b7100000000000000000000000000000000000000000000000000000000600052601160045260246000fd5b6000610f198261092a565b9150610f248361092a565b925082610f3457610f33610eb0565b5b828204905092915050565b7f4e6f7420656e6f75676820617070726f76616c73000000000000000000000000600082015250565b6000610f75601483610b00565b9150610f8082610f3f565b602082019050919050565b60006020820190508181036000830152610fa481610f68565b9050919050565b7f4e487b7100000000000000000000000000000000000000000000000000000000600052602260045260246000fd5b60006002820490506001821680610ff257607f821691505b60208210810361100557611004610fab565b5b50919050565b60008190508160005260206000209050919050565b60006020601f8301049050919050565b600082821b905092915050565b60006008830261106d7fffffffffffffffffffffffffffffffffffffffffffffffffffffffffffffffff82611030565b6110778683611030565b95508019841693508086168417925050509392505050565b6000819050919050565b60006110b46110af6110aa8461092a565b61108f565b61092a565b9050919050565b6000819050919050565b6110ce83611099565b6110e26110da826110bb565b84845461103d565b825550505050565b600090565b6110f76110ea565b6111028184846110c5565b505050565b5b818110156111265761111b6000826110ef565b600181019050611108565b5050565b601f82111561116b5761113c8161100b565b61114584611020565b81016020851015611154578190505b61116861116085611020565b830182611107565b50505b505050565b600082821c905092915050565b600061118e60001984600802611170565b1980831691505092915050565b60006111a7838361117d565b9150826002028217905092915050565b6111c082610af5565b67ffffffffffffffff8111156111d9576111d8610be9565b5b6111e38254610fda565b6111ee82828561112a565b600060209050601f831160018114611221576000841561120f578287015190505b611219858261119b565b865550611281565b601f19841661122f8661100b565b60005b8281101561125757848901518255600182019150602085019450602081019050611232565b868310156112745784890151611270601f89168261117d565b8355505b6001600288020188555050505b505050505050565b60006112948261092a565b91507fffffffffffffffffffffffffffffffffffffffffffffffffffffffffffffffff82036112c6576112c5610edf565b5b60018201905091905056fea264697066735822122062c8f23d4f7bb7add0e795a80c1b43b0bc049b669a23a912f31e5c81e124dff364736f6c63430008130033",
      "opcodes": "PUSH1 0x80 PUSH1 0x40 MSTORE CALLVALUE DUP1 ISZERO PUSH3 0x11 JUMPI PUSH1 0x0 DUP1 REVERT JUMPDEST POP PUSH1 0x40 MLOAD PUSH3 0x148A CODESIZE SUB DUP1 PUSH3 0x148A DUP4 CODECOPY DUP2 DUP2 ADD PUSH1 0x40 MSTORE DUP2 ADD SWAP1 PUSH3 0x37 SWAP2 SWAP1 PUSH3 0x12C JUMP JUMPDEST DUP2 PUSH1 0x2 DUP2 SWAP1 SSTORE POP DUP1 PUSH1 0x1 PUSH1 0x0 PUSH2 0x100 EXP DUP2 SLOAD DUP2 PUSH20 0xFFFFFFFFFFFFFFFFFFFFFFFFFFFFFFFFFFFFFFFF MUL NOT AND SWAP1 DUP4 PUSH20 0xFFFFFFFFFFFFFFFFFFFFFFFFFFFFFFFFFFFFFFFF AND MUL OR SWAP1 SSTORE POP POP POP PUSH3 0x173 JUMP JUMPDEST PUSH1 0x0 DUP1 REVERT JUMPDEST PUSH1 0x0 DUP2 SWAP1 POP SWAP2 SWAP1 POP JUMP JUMPDEST PUSH3 0xA1 DUP2 PUSH3 0x8C JUMP JUMPDEST DUP2 EQ PUSH3 0xAD JUMPI PUSH1 0x0 DUP1 REVERT JUMPDEST POP JUMP JUMPDEST PUSH1 0x0 DUP2 MLOAD SWAP1 POP PUSH3 0xC1 DUP2 PUSH3 0x96 JUMP JUMPDEST SWAP3 SWAP2 POP POP JUMP JUMPDEST PUSH1 0x0 PUSH20 0xFFFFFFFFFFFFFFFFFFFFFFFFFFFFFFFFFFFFFFFF DUP3 AND SWAP1 POP SWAP2 SWAP1 POP JUMP JUMPDEST PUSH1 0x0 PUSH3 0xF4 DUP3 PUSH3 0xC7 JUMP JUMPDEST SWAP1 POP SWAP2 SWAP1 POP JUMP JUMPDEST PUSH3 0x106 DUP2 PUSH3 0xE7 JUMP JUMPDEST DUP2 EQ PUSH3 0x112 JUMPI PUSH1 0x0 DUP1 REVERT JUMPDEST POP JUMP JUMPDEST PUSH1 0x0 DUP2 MLOAD SWAP1 POP PUSH3 0x126 DUP2 PUSH3 0xFB JUMP JUMPDEST SWAP3 SWAP2 POP POP JUMP JUMPDEST PUSH1 0x0 DUP1 PUSH1 0x40 DUP4 DUP6 SUB SLT ISZERO PUSH3 0x146 JUMPI PUSH3 0x145 PUSH3 0x87 JUMP JUMPDEST JUMPDEST PUSH1 0x0 PUSH3 0x156 DUP6 DUP3 DUP7 ADD PUSH3 0xB0 JUMP JUMPDEST SWAP3 POP POP PUSH1 0x20 PUSH3 0x169 DUP6 DUP3 DUP7 ADD PUSH3 0x115 JUMP JUMPDEST SWAP2 POP POP SWAP3 POP SWAP3 SWAP1 POP JUMP JUMPDEST PUSH2 0x1307 DUP1 PUSH3 0x183 PUSH1 0x0 CODECOPY PUSH1 0x0 RETURN INVALID PUSH1 0x80 PUSH1 0x40 MSTORE PUSH1 0x4 CALLDATASIZE LT PUSH2 0x9C JUMPI PUSH1 0x0 CALLDATALOAD PUSH1 0xE0 SHR DUP1 PUSH4 0x481C6A75 GT PUSH2 0x64 JUMPI DUP1 PUSH4 0x481C6A75 EQ PUSH2 0x18C JUMPI DUP1 PUSH4 0x81D12C58 EQ PUSH2 0x1B7 JUMPI DUP1 PUSH4 0x8A9CFD55 EQ PUSH2 0x1F8 JUMPI DUP1 PUSH4 0x937E09B1 EQ PUSH2 0x221 JUMPI DUP1 PUSH4 0xD7BB99BA EQ PUSH2 0x24C JUMPI DUP1 PUSH4 0xD7D1BBDB EQ PUSH2 0x256 JUMPI PUSH2 0x9C JUMP JUMPDEST DUP1 PUSH4 0x3441006 EQ PUSH2 0xA1 JUMPI DUP1 PUSH4 0xA144391 EQ PUSH2 0xCA JUMPI DUP1 PUSH4 0x128E9BE6 EQ PUSH2 0x107 JUMPI DUP1 PUSH4 0x3410452A EQ PUSH2 0x132 JUMPI DUP1 PUSH4 0x4051DDAC EQ PUSH2 0x15D JUMPI JUMPDEST PUSH1 0x0 DUP1 REVERT JUMPDEST CALLVALUE DUP1 ISZERO PUSH2 0xAD JUMPI PUSH1 0x0 DUP1 REVERT JUMPDEST POP PUSH2 0xC8 PUSH1 0x4 DUP1 CALLDATASIZE SUB DUP2 ADD SWAP1 PUSH2 0xC3 SWAP2 SWAP1 PUSH2 0x960 JUMP JUMPDEST PUSH2 0x27F JUMP JUMPDEST STOP JUMPDEST CALLVALUE DUP1 ISZERO PUSH2 0xD6 JUMPI PUSH1 0x0 DUP1 REVERT JUMPDEST POP PUSH2 0xF1 PUSH1 0x4 DUP1 CALLDATASIZE SUB DUP2 ADD SWAP1 PUSH2 0xEC SWAP2 SWAP1 PUSH2 0x9EB JUMP JUMPDEST PUSH2 0x46A JUMP JUMPDEST PUSH1 0x40 MLOAD PUSH2 0xFE SWAP2 SWAP1 PUSH2 0xA33 JUMP JUMPDEST PUSH1 0x40 MLOAD DUP1 SWAP2 SUB SWAP1 RETURN JUMPDEST CALLVALUE DUP1 ISZERO PUSH2 0x113 JUMPI PUSH1 0x0 DUP1 REVERT JUMPDEST POP PUSH2 0x11C PUSH2 0x48A JUMP JUMPDEST PUSH1 0x40 MLOAD PUSH2 0x129 SWAP2 SWAP1 PUSH2 0xA5D JUMP JUMPDEST PUSH1 0x40 MLOAD DUP1 SWAP2 SUB SWAP1 RETURN JUMPDEST CALLVALUE DUP1 ISZERO PUSH2 0x13E JUMPI PUSH1 0x0 DUP1 REVERT JUMPDEST POP PUSH2 0x147 PUSH2 0x490 JUMP JUMPDEST PUSH1 0x40 MLOAD PUSH2 0x154 SWAP2 SWAP1 PUSH2 0xA5D JUMP JUMPDEST PUSH1 0x40 MLOAD DUP1 SWAP2 SUB SWAP1 RETURN JUMPDEST CALLVALUE DUP1 ISZERO PUSH2 0x169 JUMPI PUSH1 0x0 DUP1 REVERT JUMPDEST POP PUSH2 0x172 PUSH2 0x49C JUMP JUMPDEST PUSH1 0x40 MLOAD PUSH2 0x183 SWAP6 SWAP5 SWAP4 SWAP3 SWAP2 SWAP1 PUSH2 0xA87 JUMP JUMPDEST PUSH1 0x40 MLOAD DUP1 SWAP2 SUB SWAP1 RETURN JUMPDEST CALLVALUE DUP1 ISZERO PUSH2 0x198 JUMPI PUSH1 0x0 DUP1 REVERT JUMPDEST POP PUSH2 0x1A1 PUSH2 0x4E5 JUMP JUMPDEST PUSH1 0x40 MLOAD PUSH2 0x1AE SWAP2 SWAP1 PUSH2 0xADA JUMP JUMPDEST PUSH1 0x40 MLOAD DUP1 SWAP2 SUB SWAP1 RETURN JUMPDEST CALLVALUE DUP1 ISZERO PUSH2 0x1C3 JUMPI PUSH1 0x0 DUP1 REVERT JUMPDEST POP PUSH2 0x1DE PUSH1 0x4 DUP1 CALLDATASIZE SUB DUP2 ADD SWAP1 PUSH2 0x1D9 SWAP2 SWAP1 PUSH2 0x960 JUMP JUMPDEST PUSH2 0x50B JUMP JUMPDEST PUSH1 0x40 MLOAD PUSH2 0x1EF SWAP6 SWAP5 SWAP4 SWAP3 SWAP2 SWAP1 PUSH2 0xB85 JUMP JUMPDEST PUSH1 0x40 MLOAD DUP1 SWAP2 SUB SWAP1 RETURN JUMPDEST CALLVALUE DUP1 ISZERO PUSH2 0x204 JUMPI PUSH1 0x0 DUP1 REVERT JUMPDEST POP PUSH2 0x21F PUSH1 0x4 DUP1 CALLDATASIZE SUB DUP2 ADD SWAP1 PUSH2 0x21A SWAP2 SWAP1 PUSH2 0xD14 JUMP JUMPDEST PUSH2 0x606 JUMP JUMPDEST STOP JUMPDEST CALLVALUE DUP1 ISZERO PUSH2 0x22D JUMPI PUSH1 0x0 DUP1 REVERT JUMPDEST POP PUSH2 0x236 PUSH2 0x744 JUMP JUMPDEST PUSH1 0x40 MLOAD PUSH2 0x243 SWAP2 SWAP1 PUSH2 0xA5D JUMP JUMPDEST PUSH1 0x40 MLOAD DUP1 SWAP2 SUB SWAP1 RETURN JUMPDEST PUSH2 0x254 PUSH2 0x74A JUMP JUMPDEST STOP JUMPDEST CALLVALUE DUP1 ISZERO PUSH2 0x262 JUMPI PUSH1 0x0 DUP1 REVERT JUMPDEST POP PUSH2 0x27D PUSH1 0x4 DUP1 CALLDATASIZE SUB DUP2 ADD SWAP1 PUSH2 0x278 SWAP2 SWAP1 PUSH2 0x960 JUMP JUMPDEST PUSH2 0x7CA JUMP JUMPDEST STOP JUMPDEST PUSH1 0x1 PUSH1 0x0 SWAP1 SLOAD SWAP1 PUSH2 0x100 EXP SWAP1 DIV PUSH20 0xFFFFFFFFFFFFFFFFFFFFFFFFFFFFFFFFFFFFFFFF AND PUSH20 0xFFFFFFFFFFFFFFFFFFFFFFFFFFFFFFFFFFFFFFFF AND CALLER PUSH20 0xFFFFFFFFFFFFFFFFFFFFFFFFFFFFFFFFFFFFFFFF AND EQ PUSH2 0x30F JUMPI PUSH1 0x40 MLOAD PUSH32 0x8C379A000000000000000000000000000000000000000000000000000000000 DUP2 MSTORE PUSH1 0x4 ADD PUSH2 0x306 SWAP1 PUSH2 0xDF5 JUMP JUMPDEST PUSH1 0x40 MLOAD DUP1 SWAP2 SUB SWAP1 REVERT JUMPDEST PUSH1 0x0 DUP1 DUP3 DUP2 SLOAD DUP2 LT PUSH2 0x324 JUMPI PUSH2 0x323 PUSH2 0xE15 JUMP JUMPDEST JUMPDEST SWAP1 PUSH1 0x0 MSTORE PUSH1 0x20 PUSH1 0x0 KECCAK256 SWAP1 PUSH1 0x5 MUL ADD SWAP1 POP DUP1 PUSH1 0x2 ADD PUSH1 0x14 SWAP1 SLOAD SWAP1 PUSH2 0x100 EXP SWAP1 DIV PUSH1 0xFF AND ISZERO PUSH2 0x386 JUMPI PUSH1 0x40 MLOAD PUSH32 0x8C379A000000000000000000000000000000000000000000000000000000000 DUP2 MSTORE PUSH1 0x4 ADD PUSH2 0x37D SWAP1 PUSH2 0xE90 JUMP JUMPDEST PUSH1 0x40 MLOAD DUP1 SWAP2 SUB SWAP1 REVERT JUMPDEST PUSH1 0x2 PUSH1 0x4 SLOAD PUSH2 0x395 SWAP2 SWAP1 PUSH2 0xF0E JUMP JUMPDEST DUP2 PUSH1 0x3 ADD SLOAD GT PUSH2 0x3DA JUMPI PUSH1 0x40 MLOAD PUSH32 0x8C379A000000000000000000000000000000000000000000000000000000000 DUP2 MSTORE PUSH1 0x4 ADD PUSH2 0x3D1 SWAP1 PUSH2 0xF8B JUMP JUMPDEST PUSH1 0x40 MLOAD DUP1 SWAP2 SUB SWAP1 REVERT JUMPDEST DUP1 PUSH1 0x2 ADD PUSH1 0x0 SWAP1 SLOAD SWAP1 PUSH2 0x100 EXP SWAP1 DIV PUSH20 0xFFFFFFFFFFFFFFFFFFFFFFFFFFFFFFFFFFFFFFFF AND PUSH20 0xFFFFFFFFFFFFFFFFFFFFFFFFFFFFFFFFFFFFFFFF AND PUSH2 0x8FC DUP3 PUSH1 0x1 ADD SLOAD SWAP1 DUP2 ISZERO MUL SWAP1 PUSH1 0x40 MLOAD PUSH1 0x0 PUSH1 0x40 MLOAD DUP1 DUP4 SUB DUP2 DUP6 DUP9 DUP9 CALL SWAP4 POP POP POP POP ISZERO DUP1 ISZERO PUSH2 0x448 JUMPI RETURNDATASIZE PUSH1 0x0 DUP1 RETURNDATACOPY RETURNDATASIZE PUSH1 0x0 REVERT JUMPDEST POP PUSH1 0x1 DUP2 PUSH1 0x2 ADD PUSH1 0x14 PUSH2 0x100 EXP DUP2 SLOAD DUP2 PUSH1 0xFF MUL NOT AND SWAP1 DUP4 ISZERO ISZERO MUL OR SWAP1 SSTORE POP POP POP JUMP JUMPDEST PUSH1 0x3 PUSH1 0x20 MSTORE DUP1 PUSH1 0x0 MSTORE PUSH1 0x40 PUSH1 0x0 KECCAK256 PUSH1 0x0 SWAP2 POP SLOAD SWAP1 PUSH2 0x100 EXP SWAP1 DIV PUSH1 0xFF AND DUP2 JUMP JUMPDEST PUSH1 0x4 SLOAD DUP2 JUMP JUMPDEST PUSH1 0x0 DUP1 DUP1 SLOAD SWAP1 POP SWAP1 POP SWAP1 JUMP JUMPDEST PUSH1 0x0 DUP1 PUSH1 0x0 DUP1 PUSH1 0x0 PUSH1 0x2 SLOAD SELFBALANCE PUSH1 0x0 DUP1 SLOAD SWAP1 POP PUSH1 0x4 SLOAD PUSH1 0x1 PUSH1 0x0 SWAP1 SLOAD SWAP1 PUSH2 0x100 EXP SWAP1 DIV PUSH20 0xFFFFFFFFFFFFFFFFFFFFFFFFFFFFFFFFFFFFFFFF AND SWAP5 POP SWAP5 POP SWAP5 POP SWAP5 POP SWAP5 POP SWAP1 SWAP2 SWAP3 SWAP4 SWAP5 JUMP JUMPDEST PUSH1 0x1 PUSH1 0x0 SWAP1 SLOAD SWAP1 PUSH2 0x100 EXP SWAP1 DIV PUSH20 0xFFFFFFFFFFFFFFFFFFFFFFFFFFFFFFFFFFFFFFFF AND DUP2 JUMP JUMPDEST PUSH1 0x0 DUP2 DUP2 SLOAD DUP2 LT PUSH2 0x51B JUMPI PUSH1 0x0 DUP1 REVERT JUMPDEST SWAP1 PUSH1 0x0 MSTORE PUSH1 0x20 PUSH1 0x0 KECCAK256 SWAP1 PUSH1 0x5 MUL ADD PUSH1 0x0 SWAP2 POP SWAP1 POP DUP1 PUSH1 0x0 ADD DUP1 SLOAD PUSH2 0x53E SWAP1 PUSH2 0xFDA JUMP JUMPDEST DUP1 PUSH1 0x1F ADD PUSH1 0x20 DUP1 SWAP2 DIV MUL PUSH1 0x20 ADD PUSH1 0x40 MLOAD SWAP1 DUP2 ADD PUSH1 0x40 MSTORE DUP1 SWAP3 SWAP2 SWAP1 DUP2 DUP2 MSTORE PUSH1 0x20 ADD DUP3 DUP1 SLOAD PUSH2 0x56A SWAP1 PUSH2 0xFDA JUMP JUMPDEST DUP1 ISZERO PUSH2 0x5B7 JUMPI DUP1 PUSH1 0x1F LT PUSH2 0x58C JUMPI PUSH2 0x100 DUP1 DUP4 SLOAD DIV MUL DUP4 MSTORE SWAP2 PUSH1 0x20 ADD SWAP2 PUSH2 0x5B7 JUMP JUMPDEST DUP3 ADD SWAP2 SWAP1 PUSH1 0x0 MSTORE PUSH1 0x20 PUSH1 0x0 KECCAK256 SWAP1 JUMPDEST DUP2 SLOAD DUP2 MSTORE SWAP1 PUSH1 0x1 ADD SWAP1 PUSH1 0x20 ADD DUP1 DUP4 GT PUSH2 0x59A JUMPI DUP3 SWAP1 SUB PUSH1 0x1F AND DUP3 ADD SWAP2 JUMPDEST POP POP POP POP POP SWAP1 DUP1 PUSH1 0x1 ADD SLOAD SWAP1 DUP1 PUSH1 0x2 ADD PUSH1 0x0 SWAP1 SLOAD SWAP1 PUSH2 0x100 EXP SWAP1 DIV PUSH20 0xFFFFFFFFFFFFFFFFFFFFFFFFFFFFFFFFFFFFFFFF AND SWAP1 DUP1 PUSH1 0x2 ADD PUSH1 0x14 SWAP1 SLOAD SWAP1 PUSH2 0x100 EXP SWAP1 DIV PUSH1 0xFF AND SWAP1 DUP1 PUSH1 0x3 ADD SLOAD SWAP1 POP DUP6 JUMP JUMPDEST PUSH1 0x1 PUSH1 0x0 SWAP1 SLOAD SWAP1 PUSH2 0x100 EXP SWAP1 DIV PUSH20 0xFFFFFFFFFFFFFFFFFFFFFFFFFFFFFFFFFFFFFFFF AND PUSH20 0xFFFFFFFFFFFFFFFFFFFFFFFFFFFFFFFFFFFFFFFF AND CALLER PUSH20 0xFFFFFFFFFFFFFFFFFFFFFFFFFFFFFFFFFFFFFFFF AND EQ PUSH2 0x696 JUMPI PUSH1 0x40 MLOAD PUSH32 0x8C379A000000000000000000000000000000000000000000000000000000000 DUP2 MSTORE PUSH1 0x4 ADD PUSH2 0x68D SWAP1 PUSH2 0xDF5 JUMP JUMPDEST PUSH1 0x40 MLOAD DUP1 SWAP2 SUB SWAP1 REVERT JUMPDEST PUSH1 0x0 DUP1 PUSH1 0x1 DUP2 PUSH1 0x1 DUP2 SLOAD ADD DUP1 DUP3 SSTORE DUP1 SWAP2 POP POP SUB SWAP1 PUSH1 0x0 MSTORE PUSH1 0x20 PUSH1 0x0 KECCAK256 SWAP1 PUSH1 0x5 MUL ADD SWAP1 POP DUP4 DUP2 PUSH1 0x0 ADD SWAP1 DUP2 PUSH2 0x6CA SWAP2 SWAP1 PUSH2 0x11B7 JUMP JUMPDEST POP DUP3 DUP2 PUSH1 0x1 ADD DUP2 SWAP1 SSTORE POP DUP2 DUP2 PUSH1 0x2 ADD PUSH1 0x0 PUSH2 0x100 EXP DUP2 SLOAD DUP2 PUSH20 0xFFFFFFFFFFFFFFFFFFFFFFFFFFFFFFFFFFFFFFFF MUL NOT AND SWAP1 DUP4 PUSH20 0xFFFFFFFFFFFFFFFFFFFFFFFFFFFFFFFFFFFFFFFF AND MUL OR SWAP1 SSTORE POP PUSH1 0x0 DUP2 PUSH1 0x2 ADD PUSH1 0x14 PUSH2 0x100 EXP DUP2 SLOAD DUP2 PUSH1 0xFF MUL NOT AND SWAP1 DUP4 ISZERO ISZERO MUL OR SWAP1 SSTORE POP PUSH1 0x0 DUP2 PUSH1 0x3 ADD DUP2 SWAP1 SSTORE POP POP POP POP POP JUMP JUMPDEST PUSH1 0x2 SLOAD DUP2 JUMP JUMPDEST PUSH1 0x2 SLOAD CALLVALUE GT PUSH2 0x758 JUMPI PUSH1 0x0 DUP1 REVERT JUMPDEST PUSH1 0x1 PUSH1 0x3 PUSH1 0x0 CALLER PUSH20 0xFFFFFFFFFFFFFFFFFFFFFFFFFFFFFFFFFFFFFFFF AND PUSH20 0xFFFFFFFFFFFFFFFFFFFFFFFFFFFFFFFFFFFFFFFF AND DUP2 MSTORE PUSH1 0x20 ADD SWAP1 DUP2 MSTORE PUSH1 0x20 ADD PUSH1 0x0 KECCAK256 PUSH1 0x0 PUSH2 0x100 EXP DUP2 SLOAD DUP2 PUSH1 0xFF MUL NOT AND SWAP1 DUP4 ISZERO ISZERO MUL OR SWAP1 SSTORE POP PUSH1 0x4 PUSH1 0x0 DUP2 SLOAD DUP1 SWAP3 SWAP2 SWAP1 PUSH2 0x7C3 SWAP1 PUSH2 0x1289 JUMP JUMPDEST SWAP2 SWAP1 POP SSTORE POP JUMP JUMPDEST PUSH1 0x0 DUP1 DUP3 DUP2 SLOAD DUP2 LT PUSH2 0x7DF JUMPI PUSH2 0x7DE PUSH2 0xE15 JUMP JUMPDEST JUMPDEST SWAP1 PUSH1 0x0 MSTORE PUSH1 0x20 PUSH1 0x0 KECCAK256 SWAP1 PUSH1 0x5 MUL ADD SWAP1 POP PUSH1 0x3 PUSH1 0x0 CALLER PUSH20 0xFFFFFFFFFFFFFFFFFFFFFFFFFFFFFFFFFFFFFFFF AND PUSH20 0xFFFFFFFFFFFFFFFFFFFFFFFFFFFFFFFFFFFFFFFF AND DUP2 MSTORE PUSH1 0x20 ADD SWAP1 DUP2 MSTORE PUSH1 0x20 ADD PUSH1 0x0 KECCAK256 PUSH1 0x0 SWAP1 SLOAD SWAP1 PUSH2 0x100 EXP SWAP1 DIV PUSH1 0xFF AND PUSH2 0x845 JUMPI PUSH1 0x0 DUP1 REVERT JUMPDEST DUP1 PUSH1 0x4 ADD PUSH1 0x0 CALLER PUSH20 0xFFFFFFFFFFFFFFFFFFFFFFFFFFFFFFFFFFFFFFFF AND PUSH20 0xFFFFFFFFFFFFFFFFFFFFFFFFFFFFFFFFFFFFFFFF AND DUP2 MSTORE PUSH1 0x20 ADD SWAP1 DUP2 MSTORE PUSH1 0x20 ADD PUSH1 0x0 KECCAK256 PUSH1 0x0 SWAP1 SLOAD SWAP1 PUSH2 0x100 EXP SWAP1 DIV PUSH1 0xFF AND ISZERO PUSH2 0x89E JUMPI PUSH1 0x0 DUP1 REVERT JUMPDEST PUSH1 0x1 DUP2 PUSH1 0x4 ADD PUSH1 0x0 CALLER PUSH20 0xFFFFFFFFFFFFFFFFFFFFFFFFFFFFFFFFFFFFFFFF AND PUSH20 0xFFFFFFFFFFFFFFFFFFFFFFFFFFFFFFFFFFFFFFFF AND DUP2 MSTORE PUSH1 0x20 ADD SWAP1 DUP2 MSTORE PUSH1 0x20 ADD PUSH1 0x0 KECCAK256 PUSH1 0x0 PUSH2 0x100 EXP DUP2 SLOAD DUP2 PUSH1 0xFF MUL NOT AND SWAP1 DUP4 ISZERO ISZERO MUL OR SWAP1 SSTORE POP DUP1 PUSH1 0x3 ADD PUSH1 0x0 DUP2 SLOAD DUP1 SWAP3 SWAP2 SWAP1 PUSH2 0x90D SWAP1 PUSH2 0x1289 JUMP JUMPDEST SWAP2 SWAP1 POP SSTORE POP POP POP JUMP JUMPDEST PUSH1 0x0 PUSH1 0x40 MLOAD SWAP1 POP SWAP1 JUMP JUMPDEST PUSH1 0x0 DUP1 REVERT JUMPDEST PUSH1 0x0 DUP1 REVERT JUMPDEST PUSH1 0x0 DUP2 SWAP1 POP SWAP2 SWAP1 POP JUMP JUMPDEST PUSH2 0x93D DUP2 PUSH2 0x92A JUMP JUMPDEST DUP2 EQ PUSH2 0x948 JUMPI PUSH1 0x0 DUP1 REVERT JUMPDEST POP JUMP JUMPDEST PUSH1 0x0 DUP2 CALLDATALOAD SWAP1 POP PUSH2 0x95A DUP2 PUSH2 0x934 JUMP JUMPDEST SWAP3 SWAP2 POP POP JUMP JUMPDEST PUSH1 0x0 PUSH1 0x20 DUP3 DUP5 SUB SLT ISZERO PUSH2 0x976 JUMPI PUSH2 0x975 PUSH2 0x920 JUMP JUMPDEST JUMPDEST PUSH1 0x0 PUSH2 0x984 DUP5 DUP3 DUP6 ADD PUSH2 0x94B JUMP JUMPDEST SWAP2 POP POP SWAP3 SWAP2 POP POP JUMP JUMPDEST PUSH1 0x0 PUSH20 0xFFFFFFFFFFFFFFFFFFFFFFFFFFFFFFFFFFFFFFFF DUP3 AND SWAP1 POP SWAP2 SWAP1 POP JUMP JUMPDEST PUSH1 0x0 PUSH2 0x9B8 DUP3 PUSH2 0x98D JUMP JUMPDEST SWAP1 POP SWAP2 SWAP1 POP JUMP JUMPDEST PUSH2 0x9C8 DUP2 PUSH2 0x9AD JUMP JUMPDEST DUP2 EQ PUSH2 0x9D3 JUMPI PUSH1 0x0 DUP1 REVERT JUMPDEST POP JUMP JUMPDEST PUSH1 0x0 DUP2 CALLDATALOAD SWAP1 POP PUSH2 0x9E5 DUP2 PUSH2 0x9BF JUMP JUMPDEST SWAP3 SWAP2 POP POP JUMP JUMPDEST PUSH1 0x0 PUSH1 0x20 DUP3 DUP5 SUB SLT ISZERO PUSH2 0xA01 JUMPI PUSH2 0xA00 PUSH2 0x920 JUMP JUMPDEST JUMPDEST PUSH1 0x0 PUSH2 0xA0F DUP5 DUP3 DUP6 ADD PUSH2 0x9D6 JUMP JUMPDEST SWAP2 POP POP SWAP3 SWAP2 POP POP JUMP JUMPDEST PUSH1 0x0 DUP2 ISZERO ISZERO SWAP1 POP SWAP2 SWAP1 POP JUMP JUMPDEST PUSH2 0xA2D DUP2 PUSH2 0xA18 JUMP JUMPDEST DUP3 MSTORE POP POP JUMP JUMPDEST PUSH1 0x0 PUSH1 0x20 DUP3 ADD SWAP1 POP PUSH2 0xA48 PUSH1 0x0 DUP4 ADD DUP5 PUSH2 0xA24 JUMP JUMPDEST SWAP3 SWAP2 POP POP JUMP JUMPDEST PUSH2 0xA57 DUP2 PUSH2 0x92A JUMP JUMPDEST DUP3 MSTORE POP POP JUMP JUMPDEST PUSH1 0x0 PUSH1 0x20 DUP3 ADD SWAP1 POP PUSH2 0xA72 PUSH1 0x0 DUP4 ADD DUP5 PUSH2 0xA4E JUMP JUMPDEST SWAP3 SWAP2 POP POP JUMP JUMPDEST PUSH2 0xA81 DUP2 PUSH2 0x9AD JUMP JUMPDEST DUP3 MSTORE POP POP JUMP JUMPDEST PUSH1 0x0 PUSH1 0xA0 DUP3 ADD SWAP1 POP PUSH2 0xA9C PUSH1 0x0 DUP4 ADD DUP9 PUSH2 0xA4E JUMP JUMPDEST PUSH2 0xAA9 PUSH1 0x20 DUP4 ADD DUP8 PUSH2 0xA4E JUMP JUMPDEST PUSH2 0xAB6 PUSH1 0x40 DUP4 ADD DUP7 PUSH2 0xA4E JUMP JUMPDEST PUSH2 0xAC3 PUSH1 0x60 DUP4 ADD DUP6 PUSH2 0xA4E JUMP JUMPDEST PUSH2 0xAD0 PUSH1 0x80 DUP4 ADD DUP5 PUSH2 0xA78 JUMP JUMPDEST SWAP7 SWAP6 POP POP POP POP POP POP JUMP JUMPDEST PUSH1 0x0 PUSH1 0x20 DUP3 ADD SWAP1 POP PUSH2 0xAEF PUSH1 0x0 DUP4 ADD DUP5 PUSH2 0xA78 JUMP JUMPDEST SWAP3 SWAP2 POP POP JUMP JUMPDEST PUSH1 0x0 DUP2 MLOAD SWAP1 POP SWAP2 SWAP1 POP JUMP JUMPDEST PUSH1 0x0 DUP3 DUP3 MSTORE PUSH1 0x20 DUP3 ADD SWAP1 POP SWAP3 SWAP2 POP POP JUMP JUMPDEST PUSH1 0x0 JUMPDEST DUP4 DUP2 LT ISZERO PUSH2 0xB2F JUMPI DUP1 DUP3 ADD MLOAD DUP2 DUP5 ADD MSTORE PUSH1 0x20 DUP2 ADD SWAP1 POP PUSH2 0xB14 JUMP JUMPDEST PUSH1 0x0 DUP5 DUP5 ADD MSTORE POP POP POP POP JUMP JUMPDEST PUSH1 0x0 PUSH1 0x1F NOT PUSH1 0x1F DUP4 ADD AND SWAP1 POP SWAP2 SWAP1 POP JUMP JUMPDEST PUSH1 0x0 PUSH2 0xB57 DUP3 PUSH2 0xAF5 JUMP JUMPDEST PUSH2 0xB61 DUP2 DUP6 PUSH2 0xB00 JUMP JUMPDEST SWAP4 POP PUSH2 0xB71 DUP2 DUP6 PUSH1 0x20 DUP7 ADD PUSH2 0xB11 JUMP JUMPDEST PUSH2 0xB7A DUP2 PUSH2 0xB3B JUMP JUMPDEST DUP5 ADD SWAP2 POP POP SWAP3 SWAP2 POP POP JUMP JUMPDEST PUSH1 0x0 PUSH1 0xA0 DUP3 ADD SWAP1 POP DUP2 DUP2 SUB PUSH1 0x0 DUP4 ADD MSTORE PUSH2 0xB9F DUP2 DUP9 PUSH2 0xB4C JUMP JUMPDEST SWAP1 POP PUSH2 0xBAE PUSH1 0x20 DUP4 ADD DUP8 PUSH2 0xA4E JUMP JUMPDEST PUSH2 0xBBB PUSH1 0x40 DUP4 ADD DUP7 PUSH2 0xA78 JUMP JUMPDEST PUSH2 0xBC8 PUSH1 0x60 DUP4 ADD DUP6 PUSH2 0xA24 JUMP JUMPDEST PUSH2 0xBD5 PUSH1 0x80 DUP4 ADD DUP5 PUSH2 0xA4E JUMP JUMPDEST SWAP7 SWAP6 POP POP POP POP POP POP JUMP JUMPDEST PUSH1 0x0 DUP1 REVERT JUMPDEST PUSH1 0x0 DUP1 REVERT JUMPDEST PUSH32 0x4E487B7100000000000000000000000000000000000000000000000000000000 PUSH1 0x0 MSTORE PUSH1 0x41 PUSH1 0x4 MSTORE PUSH1 0x24 PUSH1 0x0 REVERT JUMPDEST PUSH2 0xC21 DUP3 PUSH2 0xB3B JUMP JUMPDEST DUP2 ADD DUP2 DUP2 LT PUSH8 0xFFFFFFFFFFFFFFFF DUP3 GT OR ISZERO PUSH2 0xC40 JUMPI PUSH2 0xC3F PUSH2 0xBE9 JUMP JUMPDEST JUMPDEST DUP1 PUSH1 0x40 MSTORE POP POP POP JUMP JUMPDEST PUSH1 0x0 PUSH2 0xC53 PUSH2 0x916 JUMP JUMPDEST SWAP1 POP PUSH2 0xC5F DUP3 DUP3 PUSH2 0xC18 JUMP JUMPDEST SWAP2 SWAP1 POP JUMP JUMPDEST PUSH1 0x0 PUSH8 0xFFFFFFFFFFFFFFFF DUP3 GT ISZERO PUSH2 0xC7F JUMPI PUSH2 0xC7E PUSH2 0xBE9 JUMP JUMPDEST JUMPDEST PUSH2 0xC88 DUP3 PUSH2 0xB3B JUMP JUMPDEST SWAP1 POP PUSH1 0x20 DUP2 ADD SWAP1 POP SWAP2 SWAP1 POP JUMP JUMPDEST DUP3 DUP2 DUP4 CALLDATACOPY PUSH1 0x0 DUP4 DUP4 ADD MSTORE POP POP POP JUMP JUMPDEST PUSH1 0x0 PUSH2 0xCB7 PUSH2 0xCB2 DUP5 PUSH2 0xC64 JUMP JUMPDEST PUSH2 0xC49 JUMP JUMPDEST SWAP1 POP DUP3 DUP2 MSTORE PUSH1 0x20 DUP2 ADD DUP5 DUP5 DUP5 ADD GT ISZERO PUSH2 0xCD3 JUMPI PUSH2 0xCD2 PUSH2 0xBE4 JUMP JUMPDEST JUMPDEST PUSH2 0xCDE DUP5 DUP3 DUP6 PUSH2 0xC95 JUMP JUMPDEST POP SWAP4 SWAP3 POP POP POP JUMP JUMPDEST PUSH1 0x0 DUP3 PUSH1 0x1F DUP4 ADD SLT PUSH2 0xCFB JUMPI PUSH2 0xCFA PUSH2 0xBDF JUMP JUMPDEST JUMPDEST DUP2 CALLDATALOAD PUSH2 0xD0B DUP5 DUP3 PUSH1 0x20 DUP7 ADD PUSH2 0xCA4 JUMP JUMPDEST SWAP2 POP POP SWAP3 SWAP2 POP POP JUMP JUMPDEST PUSH1 0x0 DUP1 PUSH1 0x0 PUSH1 0x60 DUP5 DUP7 SUB SLT ISZERO PUSH2 0xD2D JUMPI PUSH2 0xD2C PUSH2 0x920 JUMP JUMPDEST JUMPDEST PUSH1 0x0 DUP5 ADD CALLDATALOAD PUSH8 0xFFFFFFFFFFFFFFFF DUP2 GT ISZERO PUSH2 0xD4B JUMPI PUSH2 0xD4A PUSH2 0x925 JUMP JUMPDEST JUMPDEST PUSH2 0xD57 DUP7 DUP3 DUP8 ADD PUSH2 0xCE6 JUMP JUMPDEST SWAP4 POP POP PUSH1 0x20 PUSH2 0xD68 DUP7 DUP3 DUP8 ADD PUSH2 0x94B JUMP JUMPDEST SWAP3 POP POP PUSH1 0x40 PUSH2 0xD79 DUP7 DUP3 DUP8 ADD PUSH2 0x9D6 JUMP JUMPDEST SWAP2 POP POP SWAP3 POP SWAP3 POP SWAP3 JUMP JUMPDEST PUSH32 0x546869732066756E6374696F6E206973207265737472696374656420746F2074 PUSH1 0x0 DUP3 ADD MSTORE PUSH32 0x6865206D616E6167657200000000000000000000000000000000000000000000 PUSH1 0x20 DUP3 ADD MSTORE POP JUMP JUMPDEST PUSH1 0x0 PUSH2 0xDDF PUSH1 0x2A DUP4 PUSH2 0xB00 JUMP JUMPDEST SWAP2 POP PUSH2 0xDEA DUP3 PUSH2 0xD83 JUMP JUMPDEST PUSH1 0x40 DUP3 ADD SWAP1 POP SWAP2 SWAP1 POP JUMP JUMPDEST PUSH1 0x0 PUSH1 0x20 DUP3 ADD SWAP1 POP DUP2 DUP2 SUB PUSH1 0x0 DUP4 ADD MSTORE PUSH2 0xE0E DUP2 PUSH2 0xDD2 JUMP JUMPDEST SWAP1 POP SWAP2 SWAP1 POP JUMP JUMPDEST PUSH32 0x4E487B7100000000000000000000000000000000000000000000000000000000 PUSH1 0x0 MSTORE PUSH1 0x32 PUSH1 0x4 MSTORE PUSH1 0x24 PUSH1 0x0 REVERT JUMPDEST PUSH32 0x5265717565737420697320616C726561647920636F6D706C6574650000000000 PUSH1 0x0 DUP3 ADD MSTORE POP JUMP JUMPDEST PUSH1 0x0 PUSH2 0xE7A PUSH1 0x1B DUP4 PUSH2 0xB00 JUMP JUMPDEST SWAP2 POP PUSH2 0xE85 DUP3 PUSH2 0xE44 JUMP JUMPDEST PUSH1 0x20 DUP3 ADD SWAP1 POP SWAP2 SWAP1 POP JUMP JUMPDEST PUSH1 0x0 PUSH1 0x20 DUP3 ADD SWAP1 POP DUP2 DUP2 SUB PUSH1 0x0 DUP4 ADD MSTORE PUSH2 0xEA9 DUP2 PUSH2 0xE6D JUMP JUMPDEST SWAP1 POP SWAP2 SWAP1 POP JUMP JUMPDEST PUSH32 0x4E487B7100000000000000000000000000000000000000000000000000000000 PUSH1 0x0 MSTORE PUSH1 0x12 PUSH1 0x4 MSTORE PUSH1 0x24 PUSH1 0x0 REVERT JUMPDEST PUSH32 0x4E487B7100000000000000000000000000000000000000000000000000000000 PUSH1 0x0 MSTORE PUSH1 0x11 PUSH1 0x4 MSTORE PUSH1 0x24 PUSH1 0x0 REVERT JUMPDEST PUSH1 0x0 PUSH2 0xF19 DUP3 PUSH2 0x92A JUMP JUMPDEST SWAP2 POP PUSH2 0xF24 DUP4 PUSH2 0x92A JUMP JUMPDEST SWAP3 POP DUP3 PUSH2 0xF34 JUMPI PUSH2 0xF33 PUSH2 0xEB0 JUMP JUMPDEST JUMPDEST DUP3 DUP3 DIV SWAP1 POP SWAP3 SWAP2 POP POP JUMP JUMPDEST PUSH32 0x4E6F7420656E6F75676820617070726F76616C73000000000000000000000000 PUSH1 0x0 DUP3 ADD MSTORE POP JUMP JUMPDEST PUSH1 0x0 PUSH2 0xF75 PUSH1 0x14 DUP4 PUSH2 0xB00 JUMP JUMPDEST SWAP2 POP PUSH2 0xF80 DUP3 PUSH2 0xF3F JUMP JUMPDEST PUSH1 0x20 DUP3 ADD SWAP1 POP SWAP2 SWAP1 POP JUMP JUMPDEST PUSH1 0x0 PUSH1 0x20 DUP3 ADD SWAP1 POP DUP2 DUP2 SUB PUSH1 0x0 DUP4 ADD MSTORE PUSH2 0xFA4 DUP2 PUSH2 0xF68 JUMP JUMPDEST SWAP1 POP SWAP2 SWAP1 POP JUMP JUMPDEST PUSH32 0x4E487B7100000000000000000000000000000000000000000000000000000000 PUSH1 0x0 MSTORE PUSH1 0x22 PUSH1 0x4 MSTORE PUSH1 0x24 PUSH1 0x0 REVERT JUMPDEST PUSH1 0x0 PUSH1 0x2 DUP3 DIV SWAP1 POP PUSH1 0x1 DUP3 AND DUP1 PUSH2 0xFF2 JUMPI PUSH1 0x7F DUP3 AND SWAP2 POP JUMPDEST PUSH1 0x20 DUP3 LT DUP2 SUB PUSH2 0x1005 JUMPI PUSH2 0x1004 PUSH2 0xFAB JUMP JUMPDEST JUMPDEST POP SWAP2 SWAP1 POP JUMP JUMPDEST PUSH1 0x0 DUP2 SWAP1 POP DUP2 PUSH1 0x0 MSTORE PUSH1 0x20 PUSH1 0x0 KECCAK256 SWAP1 POP SWAP2 SWAP1 POP JUMP JUMPDEST PUSH1 0x0 PUSH1 0x20 PUSH1 0x1F DUP4 ADD DIV SWAP1 POP SWAP2 SWAP1 POP JUMP JUMPDEST PUSH1 0x0 DUP3 DUP3 SHL SWAP1 POP SWAP3 SWAP2 POP POP JUMP JUMPDEST PUSH1 0x0 PUSH1 0x8 DUP4 MUL PUSH2 0x106D PUSH32 0xFFFFFFFFFFFFFFFFFFFFFFFFFFFFFFFFFFFFFFFFFFFFFFFFFFFFFFFFFFFFFFFF DUP3 PUSH2 0x1030 JUMP JUMPDEST PUSH2 0x1077 DUP7 DUP4 PUSH2 0x1030 JUMP JUMPDEST SWAP6 POP DUP1 NOT DUP5 AND SWAP4 POP DUP1 DUP7 AND DUP5 OR SWAP3 POP POP POP SWAP4 SWAP3 POP POP POP JUMP JUMPDEST PUSH1 0x0 DUP2 SWAP1 POP SWAP2 SWAP1 POP JUMP JUMPDEST PUSH1 0x0 PUSH2 0x10B4 PUSH2 0x10AF PUSH2 0x10AA DUP5 PUSH2 0x92A JUMP JUMPDEST PUSH2 0x108F JUMP JUMPDEST PUSH2 0x92A JUMP JUMPDEST SWAP1 POP SWAP2 SWAP1 POP JUMP JUMPDEST PUSH1 0x0 DUP2 SWAP1 POP SWAP2 SWAP1 POP JUMP JUMPDEST PUSH2 0x10CE DUP4 PUSH2 0x1099 JUMP JUMPDEST PUSH2 0x10E2 PUSH2 0x10DA DUP3 PUSH2 0x10BB JUMP JUMPDEST DUP5 DUP5 SLOAD PUSH2 0x103D JUMP JUMPDEST DUP3 SSTORE POP POP POP POP JUMP JUMPDEST PUSH1 0x0 SWAP1 JUMP JUMPDEST PUSH2 0x10F7 PUSH2 0x10EA JUMP JUMPDEST PUSH2 0x1102 DUP2 DUP5 DUP5 PUSH2 0x10C5 JUMP JUMPDEST POP POP POP JUMP JUMPDEST JUMPDEST DUP2 DUP2 LT ISZERO PUSH2 0x1126 JUMPI PUSH2 0x111B PUSH1 0x0 DUP3 PUSH2 0x10EF JUMP JUMPDEST PUSH1 0x1 DUP2 ADD SWAP1 POP PUSH2 0x1108 JUMP JUMPDEST POP POP JUMP JUMPDEST PUSH1 0x1F DUP3 GT ISZERO PUSH2 0x116B JUMPI PUSH2 0x113C DUP2 PUSH2 0x100B JUMP JUMPDEST PUSH2 0x1145 DUP5 PUSH2 0x1020 JUMP JUMPDEST DUP2 ADD PUSH1 0x20 DUP6 LT ISZERO PUSH2 0x1154 JUMPI DUP2 SWAP1 POP JUMPDEST PUSH2 0x1168 PUSH2 0x1160 DUP6 PUSH2 0x1020 JUMP JUMPDEST DUP4 ADD DUP3 PUSH2 0x1107 JUMP JUMPDEST POP POP JUMPDEST POP POP POP JUMP JUMPDEST PUSH1 0x0 DUP3 DUP3 SHR SWAP1 POP SWAP3 SWAP2 POP POP JUMP JUMPDEST PUSH1 0x0 PUSH2 0x118E PUSH1 0x0 NOT DUP5 PUSH1 0x8 MUL PUSH2 0x1170 JUMP JUMPDEST NOT DUP1 DUP4 AND SWAP2 POP POP SWAP3 SWAP2 POP POP JUMP JUMPDEST PUSH1 0x0 PUSH2 0x11A7 DUP4 DUP4 PUSH2 0x117D JUMP JUMPDEST SWAP2 POP DUP3 PUSH1 0x2 MUL DUP3 OR SWAP1 POP SWAP3 SWAP2 POP POP JUMP JUMPDEST PUSH2 0x11C0 DUP3 PUSH2 0xAF5 JUMP JUMPDEST PUSH8 0xFFFFFFFFFFFFFFFF DUP2 GT ISZERO PUSH2 0x11D9 JUMPI PUSH2 0x11D8 PUSH2 0xBE9 JUMP JUMPDEST JUMPDEST PUSH2 0x11E3 DUP3 SLOAD PUSH2 0xFDA JUMP JUMPDEST PUSH2 0x11EE DUP3 DUP3 DUP6 PUSH2 0x112A JUMP JUMPDEST PUSH1 0x0 PUSH1 0x20 SWAP1 POP PUSH1 0x1F DUP4 GT PUSH1 0x1 DUP2 EQ PUSH2 0x1221 JUMPI PUSH1 0x0 DUP5 ISZERO PUSH2 0x120F JUMPI DUP3 DUP8 ADD MLOAD SWAP1 POP JUMPDEST PUSH2 0x1219 DUP6 DUP3 PUSH2 0x119B JUMP JUMPDEST DUP7 SSTORE POP PUSH2 0x1281 JUMP JUMPDEST PUSH1 0x1F NOT DUP5 AND PUSH2 0x122F DUP7 PUSH2 0x100B JUMP JUMPDEST PUSH1 0x0 JUMPDEST DUP3 DUP2 LT ISZERO PUSH2 0x1257 JUMPI DUP5 DUP10 ADD MLOAD DUP3 SSTORE PUSH1 0x1 DUP3 ADD SWAP2 POP PUSH1 0x20 DUP6 ADD SWAP5 POP PUSH1 0x20 DUP2 ADD SWAP1 POP PUSH2 0x1232 JUMP JUMPDEST DUP7 DUP4 LT ISZERO PUSH2 0x1274 JUMPI DUP5 DUP10 ADD MLOAD PUSH2 0x1270 PUSH1 0x1F DUP10 AND DUP3 PUSH2 0x117D JUMP JUMPDEST DUP4 SSTORE POP JUMPDEST PUSH1 0x1 PUSH1 0x2 DUP9 MUL ADD DUP9 SSTORE POP POP POP JUMPDEST POP POP POP POP POP POP JUMP JUMPDEST PUSH1 0x0 PUSH2 0x1294 DUP3 PUSH2 0x92A JUMP JUMPDEST SWAP2 POP PUSH32 0xFFFFFFFFFFFFFFFFFFFFFFFFFFFFFFFFFFFFFFFFFFFFFFFFFFFFFFFFFFFFFFFF DUP3 SUB PUSH2 0x12C6 JUMPI PUSH2 0x12C5 PUSH2 0xEDF JUMP JUMPDEST JUMPDEST PUSH1 0x1 DUP3 ADD SWAP1 POP SWAP2 SWAP1 POP JUMP INVALID LOG2 PUSH5 0x6970667358 0x22 SLT KECCAK256 PUSH3 0xC8F23D 0x4F PUSH28 0xB7ADD0E795A80C1B43B0BC049B669A23A912F31E5C81E124DFF36473 PUSH16 0x6C634300081300330000000000000000 "
    },
    "gasEstimates": {
      "creation": {
        "codeDepositCost": "974200",
        "executionCost": "infinite",
        "totalCost": "infinite"
      },
      "external": {
        "approveRequest(uint256)": "infinite",
        "approverCount()": "2474",
        "approvers(address)": "2868",
        "contribute()": "51043",
        "createRequest(string,uint256,address)": "infinite",
        "finalizeRequest(uint256)": "infinite",
        "getRequestsCount()": "2512",
        "getSummary()": "infinite",
        "manager()": "2514",
        "minimumContribution()": "2495",
        "requests(uint256)": "infinite"
      }
    },
    "methodIdentifiers": {
      "approveRequest(uint256)": "d7d1bbdb",
      "approverCount()": "128e9be6",
      "approvers(address)": "0a144391",
      "contribute()": "d7bb99ba",
      "createRequest(string,uint256,address)": "8a9cfd55",
      "finalizeRequest(uint256)": "03441006",
      "getRequestsCount()": "3410452a",
      "getSummary()": "4051ddac",
      "manager()": "481c6a75",
      "minimumContribution()": "937e09b1",
      "requests(uint256)": "81d12c58"
    }
  },
  "storageLayout": {
    "storage": [
      {
        "astId": 58,
        "contract": "Campaign.sol:Campaign",
        "label": "requests",
        "offset": 0,
        "slot": "0",
        "type": "t_array(t_struct(Request)54_storage)dyn_storage"
      },
      {
        "astId": 60,
        "contract": "Campaign.sol:Campaign",
        "label": "manager",
        "offset": 0,
        "slot": "1",
        "type": "t_address"
      },
      {
        "astId": 62,
        "contract": "Campaign.sol:Campaign",
        "label": "minimumContribution",
        "offset": 0,
        "slot": "2",
        "type": "t_uint256"
      },
      {
        "astId": 66,
        "contract": "Campaign.sol:Campaign",
        "label": "approvers",
        "offset": 0,
        "slot": "3",
        "type": "t_mapping(t_address,t_bool)"
      },
      {
        "astId": 68,
        "contract": "Campaign.sol:Campaign",
        "label": "approverCount",
        "offset": 0,
        "slot": "4",
        "type": "t_uint256"
      }
    ],
    "types": {
      "t_address": {
        "encoding": "inplace",
        "label": "address",
        "numberOfBytes": "20"
      },
      "t_array(t_struct(Request)54_storage)dyn_storage": {
        "base": "t_struct(Request)54_storage",
        "encoding": "dynamic_array",
        "label": "struct Campaign.Request[]",
        "numberOfBytes": "32"
      },
      "t_bool": {
        "encoding": "inplace",
        "label": "bool",
        "numberOfBytes": "1"
      },
      "t_mapping(t_address,t_bool)": {
        "encoding": "mapping",
        "key": "t_address",
        "label": "mapping(address => bool)",
        "numberOfBytes": "32",
        "value": "t_bool"
      },
      "t_string_storage": {
        "encoding": "bytes",
        "label": "string",
        "numberOfBytes": "32"
      },
      "t_struct(Request)54_storage": {
        "encoding": "inplace",
        "label": "struct Campaign.Request",
        "members": [
          {
            "astId": 41,
            "contract": "Campaign.sol:Campaign",
            "label": "description",
            "offset": 0,
            "slot": "0",
            "type": "t_string_storage"
          },
          {
            "astId": 43,
            "contract": "Campaign.sol:Campaign",
            "label": "value",
            "offset": 0,
            "slot": "1",
            "type": "t_uint256"
          },
          {
            "astId": 45,
            "contract": "Campaign.sol:Campaign",
            "label": "recipient",
            "offset": 0,
            "slot": "2",
            "type": "t_address"
          },
          {
            "astId": 47,
            "contract": "Campaign.sol:Campaign",
            "label": "complete",
            "offset": 20,
            "slot": "2",
            "type": "t_bool"
          },
          {
            "astId": 49,
            "contract": "Campaign.sol:Campaign",
            "label": "approvalcount",
            "offset": 0,
            "slot": "3",
            "type": "t_uint256"
          },
          {
            "astId": 53,
            "contract": "Campaign.sol:Campaign",
            "label": "approvals",
            "offset": 0,
            "slot": "4",
            "type": "t_mapping(t_address,t_bool)"
          }
        ],
        "numberOfBytes": "160"
      },
      "t_uint256": {
        "encoding": "inplace",
        "label": "uint256",
        "numberOfBytes": "32"
      }
    }
  },
  "userdoc": {
    "kind": "user",
    "methods": {},
    "version": 1
  }
}